:020000040800F2
:1000000058070020C5010008092000080120000849
:1000100005200008650400082924000800000000ED
:100020000000000000000000000000001120000897
:1000300075040008000000000D20000815200008CD
:10004000DF010008DF010008DF010008DF01000810
:10005000DF010008DF010008DF010008DF01000800
:10006000DF010008DF010008DF010008DF010008F0
:10007000DF010008DF010008DF0100086904000853
:10008000DF010008DF010008DF010008DF010008D0
:10009000DF010008DF010008DF010008DF010008C0
:1000A000DF010008DF010008DF010008DF010008B0
:1000B000DF010008DF010008DF010008DF010008A0
:1000C000DF010008DF010008DF010008DF01000890
:1000D000DF0100081D240008DF010008DF0100081F
:1000E000DF010008DF010008DF01000800F002F86E
:1000F00000F059F814A696E8000CB244B344DA456F
:1001000001D100F050F8BAE80F000FA696E83000D1
:10011000A5EB040504EB0607AAEB0704A7F101070A
:100120004FEA15154FEA3414A4F10104AC4201D38F
:1001300000F039F813F0010F18BFFB1A43F0010368
:1001400000F001F8DBE718474C2500006C250000A3
:10015000103A24BF78C878C1FAD8520724BF30C8F3
:1001600030C144BF04680C60704700007047000055
:100170000023002400250026103A28BF78C1FBD8B0
:10018000520728BF30C148BF0B6070471FB500F051
:1001900005F904000020002102F050FA401C6060C4
:1001A0001FBD10B510BD00F0D4F81146FFF7EEFFEB
:1001B00002F03CF900F004F903B4FFF7F2FF03BCCE
:1001C00000F048F90948804709480047FEE7FEE784
:1001D000FEE7FEE7FEE7FEE7FEE7FEE7FEE7FEE7F7
:1001E00004480549054A064B7047000019200008DD
:1001F000ED00000858010020580700205803002097
:100200005803002070B5064600F00CF80468054657
:1002100030460A22002100F009F82C6070BD7047BA
:100220007047704700487047100000202DE9F047E4
:1002300091460F4680460446002614F8015B2DB116
:1002400000F030F80068405DC007F6D12B2D02D0D9
:100250002D2D18D0641E4A463946204600F02AF853
:1002600027B13968A14201D1C7F800804FF00204DC
:1002700071050BD54042002803DDFFF7D3FF046072
:10028000A007BDE8F08746F48066E4E70028F8DAC6
:10029000FFF7C8FF04606FF00040F2E700487047C6
:1002A0001000002010B500F079F8001D10BD00BF4F
:1002B0008D2300002DE9F05F824615468B4600270E
:1002C0000AF10104B9460078302801D09DB113E04D
:1002D00014F8010B0127782803D0582801D045B124
:1002E0000AE00DB1102D07D1002714F8010B1025DD
:1002F00002E0082500E00A250026B0460EE005FBD6
:10030000080005FB06F101271FFA80F801EB1046F3
:10031000B6F5803F00D3B94614F8010B294600F02A
:1003200041F80028EBDABBF1000F05D00FB1641ED5
:1003300000E05446CBF80040B9F1000F06D0FFF7BB
:1003400071FF02210160C81EBDE8F09F48EA064027
:10035000FAE77546FFF7A2FFAE4605006946534629
:1003600020F00700854618B020B5FFF739FFBDE83B
:1003700020404FF000064FF000074FF000084FF00C
:10038000000BAC46ACE8C009ACE8C009ACE8C00959
:10039000ACE8C00921F007018D467047004870475E
:1003A000300000203A2800D2303820F02002412AC4
:1003B00001D3A2F13700884201D34FF0FF307047DC
:1003C00010B50446AFF300802046BDE81040FFF7AB
:1003D000F3BE00004FF0013C50F8042B51F8043BF1
:1003E0009A4221D1A2EB0C03934313EACC1317D109
:1003F00050F8042B51F8043B9A4215D1A2EB0C03A0
:10040000934313EACC130BD150F8042B51F8043B5F
:100410009A4209D1A2EB0C03934313EACC13DBD02D
:100420004FF00000704700BFD01A01BAB1FA81F155
:1004300001F0180122FA01F0CB40DBB2C0B2C01AC1
:10044000C1F120012CFA01F3D11A914311EAC31131
:10045000E6D1704701491820ABBEFEE72600020036
:1004600070470000FEE7000040F2C400C2F2000046
:1004700000F088B870470000EFF3108072B600BF3C
:10048000FEE70000014690F82100022816D1086816
:10049000D1E90FC3026822F00E020260026822F066
:1004A00001020260012000FA03F2CCF8042081F876
:1004B00021000020002281F820207047042088635A
:1004C0000120002281F820207047000090F82110C0
:1004D000022923D1026840F2040C1168C4F2020C14
:1004E00021F00E01116013682F21C4F202018A422B
:1004F00023F00103136015DD3023C4F202039A4296
:100500001CD04423C4F202039A421BD05823C4F2E5
:1005100002039A421CD14FF4803321E0042181630D
:10052000012070470823C4F202039A420ED01C2314
:10053000C4F202039A420BD1102311E04FF48073EE
:100540000EE000BF4FF480530AE000BF012307E034
:100550000CF168014FF080738A4208BF4FF480139A
:100560000121CCF8003080F82110416B00220029D5
:1005700080F8202004BF0020704780B58847002005
:1005800080BD000010B5D0E90FCE0168DCF8003066
:100590000A6823FA0EF35C072AD512F0040427D068
:1005A0000A68920603D40A6822F004020A602F2225
:1005B000C4F20202914240F20402C4F202025BDD84
:1005C0003023C4F20203994272D04423C4F20203DE
:1005D000994273D05823C4F20203994240F07A80C2
:1005E0004FF480231360C16A002940F098806FE0C7
:1005F0009C0727D512F0020424D00A68920606D47C
:100600000A6822F00A020A60012280F821202F22C3
:10061000C4F20202914240F20402C4F202023BDD43
:100620003023C4F20203994260D04423C4F202038F
:1006300099425FD05823C4F20203994260D14FF42B
:10064000003365E01B0743D512F0080208BF10BD58
:100650000A6822F00E020A60012101FA0EF2CCF8BB
:100660000420816380F82110016B0022002980F8AA
:10067000202054D12CE000BF0823C4F20203994289
:1006800022D01C23C4F20203994223D140231360D9
:10069000C16A002943D11BE00823C4F20203994236
:1006A0002CD01C23C4F20203994229D120232FE02D
:1006B0004FF480631360C16A89BB09E04FF4804343
:1006C0001360C16A59BB03E004231360C16A31BBE4
:1006D00010BD00BF02F168044FF08063A14208BF63
:1006E0004FF480031360C16AC9B9F1E74FF4007396
:1006F0000EE000BF4FF400530AE000BF022307E002
:1007000002F168044FF00073A14208BF4FF40013D8
:100710001360816A0022002980F82020D8D0BDE82B
:1007200010400847014600284FF0010008BF7047FD
:100730002DE9F043D1F800C04FF6F873CBF6FD7306
:100740004CF6CD426344CCF6CC42A3FB02236FF0BF
:10075000030202EA93020023C4F2020301F10C082F
:10076000C1E90F320222D1E9019E98E8F00181F837
:100770002120DCF8002043F6F0739A4342EA090294
:1007800042EA0E0222432A4332433A4342EA080233
:10079000CCF8002000228A6381F8210081F8202013
:1007A0000020BDE8F043704790F820C0BCF1010F75
:1007B00004BF02207047F0B54FF0010E80F820E032
:1007C00090F821C0BCF1010F26D14FF0020C80F847
:1007D00021C04FF0000CC0F838C0D0E900C4C56A91
:1007E000C66BDCF80070102C27F00107CCF8007005
:1007F000006C0EFA00F070600846CCF8043004BFBC
:1008000010460A46CCF80800CCF80C20DCF80000B2
:1008100045B140F00E000DE0002180F820100220CC
:10082000F0BD00BF20F00400CCF80000DCF80000B0
:1008300040F00A00CCF80000DCF8000040F00100B5
:10084000CCF800000020F0BD2DE9F04F82B00E681A
:10085000002E00F0FD8041F20042C4F201020423A8
:1008600040F2004E904208BF03234FF6FF7CC4F2D3
:10087000010E009300240123C1F2100C4FF0000A76
:100880004FF000094BE000BF41F20002C4F2010248
:10089000009F904208BF022704F00C030F229A40E9
:1008A0002BEA020207FA03F34FEA9A051A4346F8C5
:1008B00025204E6840F20C45F202DEF8082054BFB5
:1008C00022EA080242EA0802C4F20105CEF8082032
:1008D0002A68B30254BF22EA080242EA08022A60E8
:1008E000B303DEF8042054BF22EA080242EA0802F9
:1008F000F303CEF80420DEF800204FF0010354BFCC
:1009000022EA080242EA0802CEF800200E680AF144
:10091000010A36FA0AF204F1040400F0998003FA9D
:100920000AFB16EA0B08F1D04E68664512DC122E5F
:1009300056D8DFE806F0350B4D49555555555555F8
:100940005555555555555545510000BFD1F80C909A
:1009500046E000BF4FF6FF72C1F2210296420FDC63
:100960000022C1F2110296421AD00022C1F21202F4
:10097000964215D00022C1F22102964210D02FE0FB
:100980000022C1F2220296420AD00022C1F23102B4
:10099000964205D00022C1F23202964220D100BF19
:1009A0008A684AB1012A14BFC0F814B0C0F810B068
:1009B0004FF0080914E000BF4FF0040910E000BF39
:1009C000CA6802F104090BE04FF0000908E000BF1B
:1009D000CA6802F1080903E0CA6802F10C0900BF05
:1009E00002462646B8F5807F24BF0432203E1768B1
:1009F0000F25B54027EA050509FA06F635431560C7
:100A0000CA79D2067FF582AF41F21803C4F202031D
:100A10001A68AEF57E7642F001021A601A6802F09A
:100A200001020192019A2AF0030256F802B040F640
:100A30000002C4F20102904208D040F60042C4F223
:100A4000010290427FF420AF012725E7002723E72A
:100A500002B0BDE8F08F0000002A08BF0904016160
:100A60007047000040F25010C2F20000006870476A
:100A700040F2000040F25011C2F20000C2F2000148
:100A800000780A68104408607047000080B542F2A0
:100A90000000C4F20200016841F01001016003206F
:100AA00000F08CF80F2000F005F800F027F8002087
:100AB00080BD000070B540F20006C2F2000640F2B0
:100AC00008013278C2F200014FF47A730968B3FB6F
:100AD000F2F20446B1FBF2F1084600F085FB0F2C60
:100AE0004FF0010508D838B94FF0FF3021460022F9
:100AF000002500F037F87460284670BD82B041F2DE
:100B00001800C4F202000168022241F001010160F4
:100B1000016801F0010101910199416841F08051A2
:100B20004160406800F08050009000980420C4F2BA
:100B30000100016862F31A61016002B070470000B1
:100B4000002848BF704700F01F01012202FA01F19E
:100B50001C2202EAD0004EF20012CEF200028150B6
:100B60007047000010B54EF60C5CCEF2000CDCF8BD
:100B70000030C3F3022E8EF00704042C28BF042497
:100B8000BEF103034FF0FF3E0EFA04F438BF00231A
:100B9000A14399400EFA03F39A43114300F00F0268
:100BA00000F160430901043A03F5644362440028FC
:100BB00048BF02F10C03197010BD00004EF60C5135
:100BC000CEF200010A684FF6FF031A4060F30A22D2
:100BD00042F0806040F0FD7008607047002804BF5C
:100BE000012070472DE9F04381B042F20008C4F2C1
:100BF00002080446D8F800000D4600F007008842BD
:100C00000CD2D8F8000020F007002843C8F80000F4
:100C1000D8F8000000F00700A8426CD1206841F22B
:100C200004098107C4F2020917D5410705D5D9F88F
:100C3000001041F4E061C9F80010010705D5D9F8AA
:100C4000001041F46051C9F80010D9F80010A268F2
:100C500021F0F0011143C9F80010C00742D1D8F8C3
:100C6000000000F00700A8420CD9D8F8000020F0DE
:100C700007002843C8F80000D8F8000000F007007B
:100C8000A84238D12068410707D5D9F80010E2689A
:100C900021F4E0611143C9F80010000708D5D9F824
:100CA0000000216920F4605040EAC100C9F800004A
:100CB000D9F8002002F00C00082841F20020C0F210
:100CC0007A004DD142F28263C2F38341C0F6000341
:100CD000595CD20338D440F60010C0F23D004843BE
:100CE0003EE000BF606859F8041C022808D00128C3
:100CF00026D1890306D4012001B0BDE8F08300BFEE
:100D00008901F8D5D9F8001021F003010843C9F88A
:100D10000000FFF7A7FE064641F28837D9F8000029
:100D2000616800F00C00B0EB810F98D0FFF79AFEDD
:100D3000801BB842F2D9032001B0BDE8F08300BFA8
:100D40008907D8D5DEE700BFD9F8002042F28063DA
:100D5000C2F34042C0F600039A5C4843B0FBF2F095
:100D6000D9F8001042F26862C1F30311C0F6000224
:100D7000515C40F2080220FA01F140F20400C2F294
:100D800000000068C2F200021160FFF793FE00202D
:100D900001B0BDE8F083000040F2080041F2040118
:100DA000C2F20000C4F202010068096842F27862EF
:100DB000C1F30221C0F60002515CC8407047000038
:100DC00040F2080041F20401C2F20000C4F2020144
:100DD0000068096842F27862C1F3C221C0F60002DD
:100DE000515CC84070470000002804BF01207047D4
:100DF0002DE9F04182B00446007841F20006C007B8
:100E0000C4F202060CD0706800F00C00042840F018
:100E100081803068800303D56068002800F0468137
:100E2000207880071BD5706810F00C0F09D070680F
:100E300000F00C00082840F087807068C00300F1C3
:100E400083803068800703D52069012840F02E8117
:100E50003068616920F0F80040EAC1003060207815
:100E6000000713D4207840072CD4E569002D00F04A
:100E70001881706800F00C00082840F0A780012D50
:100E800040F00481012002B0BDE8F081A069002893
:100E900000F084800020C4F242200121C0F88014B8
:100EA000FFF7E0FD054600BF706A800700F1B280E1
:100EB000FFF7D8FD401B0228F6D9032002B0BDE899
:100EC000F08100BFF0695FEAC00808D4F06940F023
:100ED0008050F061F06900F080500090009847F277
:100EE0000007C4F200073868C00549D4386840F4E8
:100EF00080703860FFF7B6FD054600BF3868C00552
:100F00003ED4FFF7AFFD401B6428F7D9032002B0A1
:100F1000BDE8F081706800F00C00082803D170680B
:100F2000C0033FF576AF61683068002900F00C819E
:100F3000B1F5A02F00F00081B1F5803F40F01A819B
:100F400040F480301CE100BF2069002840F200001E
:100F5000C4F2422000F0888001210160FFF782FD89
:100F6000054600BF306880073FF572AFFFF77AFD96
:100F7000401B0228F6D9032002B0BDE8F08100BF73
:100F8000E168306A002900F09D80052900F0928018
:100F9000012940F0AF8040F00100B1E00020C4F230
:100FA00042200021C0F88014FFF75CFD054600BF19
:100FB000706A80077FF556AFFFF754FD401B02288B
:100FC000F6D9032002B0BDE8F08100BF0027C4F2CB
:100FD000422700203866FFF745FD022D05460DD15A
:100FE0003068800140F1DE80FFF73CFD401B0228A5
:100FF0004FF00300F4D902B0BDE8F0813068800101
:101000004FD5FFF72FFD401B02284FF00300F5D905
:10101000F1E700BF40F20800C2F20000006844F6A9
:10102000D351C1F26201A0FB0101480A019000BF47
:1010300000BF0198411E002801913FF413AF00BF8B
:101040000198411E002801913FF40CAF00BF0198A8
:10105000411E002801913FF405AF00BF0198411ED9
:1010600000280191E4D1FDE600210160FFF7FAFCC0
:10107000054600BF306880077FF5F1AEFFF7F2FC50
:10108000401B02284FF00300F4D9B4E77068216ACE
:1010900000F480328A4209D1616A00F470108842FB
:1010A00004D1002002B0BDE8F08100BF012002B0F1
:1010B000BDE8F08140F004003062306A40F0010089
:1010C0001EE000BF20F001003062306A20F0040012
:1010D0003062FFF7C7FC054641F28837306A800767
:1010E00020D5FFF7BFFC401BB8424FF00300F5D9F5
:1010F00081E700BF20F001003062306A20F0040078
:101100003062FFF7AFFC054641F28837306A80074E
:1011100008D4FFF7A7FC401BB842F7D9032002B060
:10112000BDE8F081B8F1000F3FF59FAEF06920F007
:101130008050F06199E600BF40F480203060306854
:1011400040F480301CE000BF20F480303060306814
:1011500020F480203060FFF785FC0546306880036E
:101160007FF55EAEFFF77EFC401B64284FF0030066
:10117000F4D940E720F480303060306820F48020DB
:101180003060FFF76FFC0546306880033FF548AEDE
:10119000FFF768FC401B6428F6D9032002B0BDE8C5
:1011A000F08100BF206AB0F5803F05D17168A26868
:1011B00021F40031114371607168626A21F4741185
:1011C00011430843706001203866FFF74BFC04466A
:1011D000306880013FF565AFFFF744FC001B022833
:1011E0004FF00300F4D906E7411E0020B0EB116F69
:1011F0001CBF012070474EF21002CEF20002516077
:101200004EF62351CEF20001F0230B7007219060BF
:101210001160704790F83C20012A04BF02207047FB
:10122000B0B501F108053CCDD1E900CE23F47C53E3
:1012300022F470521A432EF4F0431A432CF4E04384
:101240001A4324F4C0431A432A43C96922F4804252
:10125000036811435964002180F83C100020B0BDA0
:1012600090F83C20012A4FF0020236D010B580F8E9
:101270003D200268D2F804E0D2F808C00C682EF0D5
:101280007003234340F2FF74C4F20004A24253608F
:101290000ADCB2F1804F13D040F20043C4F20003E5
:1012A0009A420DD011E000BF42F60043C4F20103A0
:1012B0009A4205D040F60003C4F200039A4204D1DA
:1012C00049682CF08003194391600121002280F8C5
:1012D0003D1080F83C20BDE81040104670470000EB
:1012E00080B586B0014640F60000C4F201000968EE
:1012F00000F5105291424FF00001CDE90411CDE903
:10130000021101D006B080BD41F21801C4F2020101
:101310000A6842F004020A60096801F004010191C0
:1013200001994FF48071029102210391059102A964
:10133000FFF78AFA06B080BD90F83C30012B04BF5D
:10134000022070474FEAB202032A00F2F1802DE931
:10135000F043DFE802F003A53B7500BF036842F6E7
:1013600000461D6A1A6AC4F2010622F001021A62DE
:101370001A465C6852F818CFB3428E68D1F800E084
:1013800025F0020545EA06050CD1CE68D1E90578BD
:1013900024F4407425F00C0526F004063C43354344
:1013A00044EA08042CF0730747EA0E075C609F616B
:1013B0004F6809695F631D629F6947F008079F6175
:1013C0009F6927F004079F61A6E000BF036842F60B
:1013D00000461D6A1A6AC4F2010622F480721A627B
:1013E0001A46D3F804C052F81CEFB3428E680C685A
:1013F00025F4007545EA06250FD1CE68D1E9059898
:10140000360240F2FF4725F44065BE4335432CF4D5
:10141000405748EA090647EA061C2EF0730727439F
:10142000C3F804C0DF614F680969DF631D62DF69CB
:1014300047F00807DF61DF6927F00407DF616BE031
:10144000036842F60047D3F820C01A6AC4F20107C5
:1014500022F480521A621A465C6852F81C5FD1F876
:1014600000E08E68BB4204D14F6924F4804444EA12
:1014700087142CF4005747EA063725F4E64646EA77
:101480000E265C60DE614E6809691E641F62DF69BA
:1014900047F40067DF61DF6927F48067DF613AE0C6
:1014A000036842F600461D6A1A6AC4F2010622F079
:1014B00010021A621A46D3F804C052F8184FB34209
:1014C0008E68D1F800E025F0200545EA06150FD119
:1014D000CE68D1E905986FF0400725F0C00507EA0E
:1014E000061635432CF4406748EA090647EA860C9D
:1014F00024F4E64444EA0E27C3F804C09F614F6811
:1015000009699F631D629F6947F400679F619F6936
:1015100027F480679F610902136819431160002155
:10152000BDE8F043002280F83C200846704700BF29
:101530000121002280F83C2008467047002804BFA3
:101540000120704710B590F83D1031B9002180F8A6
:101550003C10044600F070F82046022180F83D104F
:10156000016840F2FF740B68C4F2000442F6004CBC
:10157000A142C4F2010C15DCB1F1804F1AD040F247
:101580000042C4F20002914214D0A14218DCB1F131
:10159000804F1DD040F20042C4F20002914217D0A9
:1015A0001AE000BF614505D040F60002C4F2000217
:1015B0009142EAD1826823F070031343A142E6DD31
:1015C000614505D040F60002C4F20002914203D109
:1015D000026923F440731343846923F08002D0F836
:1015E00004E0C368224361450A60CB62C1F828E089
:1015F00002D14269CCF8302001224A610B69DB0735
:1016000003D00B6923F001030B6180F8462080F8BA
:101610003E2080F83F2080F8402080F8412080F86C
:10162000422080F8432080F8442080F8452080F84C
:101630003D20002010BD0000006842F60041C4F2C9
:101640000101884218BF704781B041F21800C4F20E
:101650000200016841F400610160006800F400606C
:101660000090009801B07047C1B1042908D0082942
:1016700014BF41224022825C012A05D016E000BF3F
:101680003F22825C012A11D10222082910D00429AC
:1016900014BF80F8412080F83F200BE090F83E20F6
:1016A000012A03D1022280F83E2003E00120704786
:1016B00080F84020006801F01F010122036A8A407F
:1016C00023EA02010162036A42F64441C4F20101C5
:1016D0001A43A1F14403984202620FD040F2FF7115
:1016E000C4F20001884213DCB0F1804F1CD040F2FC
:1016F0000041C4F20001884216D01CE00A6842F49E
:1017000000420A6040F2FF71C4F200018842EBDD42
:1017100042F60041C4F20101884205D040F60001C2
:10172000C4F20001884206D1816801F00701062950
:1017300004BF00207047016841F0010101600020F2
:10174000704700007047000070470000B0B582B0DD
:1017500001680A68CC684B6902F02F05202D04F05F
:10176000200505D125B102B0BDE8B04000F0D6BDDE
:101770005FEA027C1EBF03F0010E04F4907313EBCA
:101780000E0341D1036BD50618D5012B16D114F0E9
:10179000100313D0002201920A6801924A68019254
:1017A000019A496949064BD4818DC28DC38D002BA6
:1017B00018BF914240F0F48102B0B0BD13062DD5A0
:1017C00014F080032AD090F84120212AF4D18268B5
:1017D000B2F5805F03D10269002A00F06782026AD5
:1017E000531C036212784A60C28C013A1304C2840B
:1017F000E2D1C86820F08000C860C86840F04000AE
:10180000C86002B0B0BD00BFD30718BF14F4807326
:1018100040F0D080530700F1D380D8E05206CBD5FA
:1018200014F04002C8D0CA6822F04002CA602021E9
:1018300080F8411002B0BDE8B04000F0DFBB00BF4F
:10184000C16B0A68526893B2002BB5D0858DAB424C
:10185000B2D2C2858969202900F0A180016851E8CF
:10186000031F026821F4807142E80313DBB10168B1
:1018700051E8031F026821F4807142E8031393B119
:10188000016851E8031F026821F4807142E80313E4
:101890004BB1016851E8031F026821F4807142E8EE
:1018A0000313002BDAD1016851E8051F026821F00B
:1018B000010142E80513C3B3016851E8051F02683E
:1018C00021F0010142E805137BB3016851E8051FCF
:1018D000026821F0010142E8051333B3016851E8C1
:1018E000051F026821F0010142E80513002BDAD13F
:1018F0001BE000BF016851E8051F026821F04001AC
:1019000042E80513DBB1016851E8051F026821F0C8
:10191000400142E8051393B1016851E8051F0268D0
:1019200021F0400142E805134BB1016851E8051F61
:10193000026821F0400142E80513002BDAD1202192
:1019400080F8421000210163016851E8031F02681A
:1019500021F0100142E80313DBB1016851E8031FD5
:10196000026821F0100142E8031393B1016851E8C5
:10197000031F026821F0100142E803134BB1016814
:1019800051E8031F026821F0100142E80313002B05
:10199000DAD1C16B04460846FEF774FD20460221E9
:1019A0004163818DC28D891A89B202B0BDE8B04011
:1019B000FFF7C8BE436C43F001034364530706D5E9
:1019C000BEF1000F03D0436C43F00203436493075E
:1019D00006D5BEF1000F03D0436C43F0040343640B
:1019E000BCF1000F06D55EEA050303D0436C43F05B
:1019F00008034364436C002B3FF4DEAE920605D52A
:101A000025B1044600F08AFC216820464969426CF1
:101A100001F0400102F00802891800F0B98000BF0F
:101A2000016851E8031F026821F4907142E8031332
:101A3000BBB3016851E8031F026821F4907142E8CA
:101A4000031373B3016851E8031F026821F4907116
:101A500042E803132BB3016851E8031F026821F425
:101A6000907142E80313002BDAD11AE0016851E8C3
:101A7000051F026821F0010142E80513DBB101688E
:101A800051E8051F026821F0010142E8051393B1F6
:101A9000016851E8051F026821F0010142E80513C1
:101AA0004BB1016851E8051F026821F0010142E8CD
:101AB0000513002BDAD1016B012924D1016851E80B
:101AC000031F026821F0100142E80313DBB1016833
:101AD00051E8031F026821F0100142E8031393B19B
:101AE000016851E8031F026821F0100142E8031366
:101AF0004BB1016851E8031F026821F0100142E870
:101B00000313002BDAD1202180F842100021016359
:101B100001684969490640F1C380016851E8051F21
:101B2000026821F0400142E80513DBB1016851E889
:101B3000051F026821F0400142E8051393B10168D6
:101B400051E8051F026821F0400142E805134BB13E
:101B5000016851E8051F026821F0400142E80513C1
:101B6000002BDAD1C16B002900F09A8042F21D02ED
:101B7000C0F60002044608464A63FEF7A7FC0028A8
:101B80003FF41AAEE06B416B02B0BDE8B0400847CD
:101B90000446FFF7D9FD0020606402B0B0BD00BF6D
:101BA000891A00BF026852E8032F036822F490727A
:101BB00043E80325BDB3026852E8032F036822F40B
:101BC000907243E8032575B3026852E8032F036857
:101BD00022F4907243E803252DB3026852E8032FE4
:101BE000036822F4907243E80325002DDAD11AE04D
:101BF000026852E8052F036822F0010243E8052538
:101C0000DDB1026852E8052F036822F0010243E8C3
:101C1000052595B1026852E8052F036822F00102FC
:101C200043E805254DB1026852E8052F036822F00C
:101C3000010243E80525002DDAD1202280F8422058
:101C400000220263026852E8032F036822F01002A8
:101C500043E80325DDB1026852E8032F036822F050
:101C6000100243E8032595B1026852E8032F036888
:101C700022F0100243E803254DB1026852E8032F19
:101C8000036822F0100243E80325002DDAD1022276
:101C900089B2426302B0BDE8B040FFF753BD00BF58
:101CA00002B0BDE8B040FFF74FBD00BF026A32F896
:101CB000023B6FF35F234B60026295E5002804BF8F
:101CC0000120704710B5044690F8410028B9002063
:101CD00084F84000204600F063F8242084F8410096
:101CE0002068D4E90212C36823F40053C360036977
:101CF00023F440531A430261D4E904231143C26818
:101D0000194341F20C639A431143C1604169A269CE
:101D100021F44071114343F60002C4F201029042E3
:101D2000416103D0FFF738F802E000BFFFF748F841
:101D3000D4E90023192148439900B0FBF1F048F29F
:101D40001F5CC5F2EB1CA0FB0C314FF69C734909DC
:101D5000C0F6FF7301FB0300322303EB0010A0FB6E
:101D60000C03F02000EA531000EB0110C3F3431101
:101D7000084490601069202120F49040106150695F
:101D800020F02A005061D06840F40050D06000205C
:101D9000606484F8411084F84210606310BD000054
:101DA0002DE9F04186B040F600050446C4F2010575
:101DB000006805F54051002788420597CDE9037773
:101DC000029703D006B0BDE8F08100BF41F21806CB
:101DD000C4F2020630680DF1080840F4804030601B
:101DE0003068414600F4804001900198306840F02E
:101DF00004003060306800F00400019001984FF456
:101E00000070029002200390032005902846FEF700
:101E10001BFD4FF48060CDE9020728464146049738
:101E2000FEF712FD40F2C405A6F57C60C2F2000583
:101E300080212022C5E900072846C5E90271C5E9CD
:101E40000477C5E90627FEF76DFC002818BFFEF7EA
:101E500013FB252001210022E5636C62FEF782FE60
:101E60002520FEF76DFE06B0BDE8F08190F8423007
:101E7000202B0BD194460A4600294FF0010118BFD0
:101E8000BCF1000F06D10846704700BF022108468A
:101E9000704700BF70B582B00025222105638262C1
:101EA000A0F82CC0456480F842100168C36B42F270
:101EB000A51442F2053E42F22906C0F60004C0F61F
:101EC000000EC0F60006C3E90A4EC3E90C650431F2
:101ED000044618466346FEF767FC019521682046D4
:101EE0000A680192496801910199216931B300BFE3
:101EF000016851E8031F026841F4807142E803134E
:101F0000E3B1016851E8031F026841F4807142E8BF
:101F100003139BB1016851E8031F026841F480710B
:101F200042E8031353B1016851E8031F026841F40A
:101F3000807142E80313002BDAD100BF016851E839
:101F4000051F026841F0010142E80513BBB30168B7
:101F500051E8051F026841F0010142E8051373B31F
:101F6000016851E8051F026841F0010142E80513CC
:101F70002BB3016851E8051F026841F0010142E8F6
:101F80000513002BDAD11AE0016851E8051F026839
:101F900041F0400142E80513DBB1016851E8051F3B
:101FA000026841F0400142E8051393B1016851E82D
:101FB000051F026841F0400142E805134BB101687A
:101FC00051E8051F026841F0400142E80513002B6B
:101FD000DAD1002002B070BD006843F60001C4F2FF
:101FE0000101884218BF704740F27000C2F2000041
:101FF0000121017070470000704700007047000029
:10200000FEE70000FEE70000FEE70000704700006A
:1020100070470000FEF72CBD70470000406A0021A9
:10202000C185C184FFF790BB406A01684A6990F896
:102030004130212B2DD112F080022AD00021C18401
:10204000016851E8031F026821F0C00142E8031350
:10205000DBB1016851E8031F026821F0C00142E8CA
:10206000031393B1016851E8031F026821F0C00116
:1020700042E803134BB1016851E8031F026821F0E5
:10208000C00142E80313002BDAD1202180F841106F
:102090000168496990F84220222A40F07D8011F0C1
:1020A000400179D00021C185016851E8031F026811
:1020B00021F4907142E80313BBB3016851E8031F98
:1020C000026821F4907142E8031373B3016851E888
:1020D000031F026821F4907142E803132BB30168D7
:1020E00051E8031F026821F4907142E80313002BAA
:1020F000DAD11AE0016851E8051F026821F00101F8
:1021000042E80513DBB1016851E8051F026821F0C0
:10211000010142E8051393B1016851E8051F026807
:1021200021F0010142E805134BB1016851E8051F98
:10213000026821F0010142E80513002BDAD1016B9E
:10214000012924D1016851E8031F026821F0100120
:1021500042E80313DBB1016851E8031F026821F074
:10216000100142E8031393B1016851E8031F0268AC
:1021700021F0100142E803134BB1016851E8031F3D
:10218000026821F0100142E80313002BDAD120216C
:1021900080F8421000210163416C41F0100141645C
:1021A000FFF7D2BA0168406A0968890600F19F808A
:1021B0000021C185016851E8031F026821F4807184
:1021C00042E80313E3B1016851E8031F026821F4F8
:1021D000807142E803139BB1016851E8031F026854
:1021E00021F4807142E8031353B1016851E8031FE1
:1021F000026821F4807142E80313002BDAD100BF9A
:10220000016851E8051F026821F0010142E8051349
:10221000BBB3016851E8051F026821F0010142E8E3
:10222000051373B3016851E8051F026821F001012D
:1022300042E805132BB3016851E8051F026821F03D
:10224000010142E80513002BDAD11AE0016851E8D8
:10225000051F026821F0400142E80513DBB1016867
:1022600051E8051F026821F0400142E8051393B1CF
:10227000016851E8051F026821F0400142E805139A
:102280004BB1016851E8051F026821F0400142E8A6
:102290000513002BDAD1202180F84210016B0129AF
:1022A00025D100BF016851E8031F026821F0100129
:1022B00042E80313DBB1016851E8031F026821F013
:1022C000100142E8031393B1016851E8031F02684B
:1022D00021F0100142E803134BB1016851E8031FDC
:1022E000026821F0100142E80313002BDAD100212B
:1022F0004163016B012918BFFFF76EBE818DFFF7A7
:1023000021BA0000406A01214163016B012918BF15
:10231000FFF772BE818D4908FFF714BA81B090F8BB
:102320004210222921D183680246B3F5805F09D18A
:1023300052F8281F52F8183C002B63D003685B68E2
:102340000AE000BF52F8281F13B90369002BF5D02B
:1023500003685B6803F07F030B7011680131116043
:10236000C18D01390A04C18502D001B0704700BF98
:102370000168CA6822F02002CA60CA6822F480722A
:10238000CA604A6922F001024A61202180F84210A5
:1023900000214163026B012A3CD10163016851E8CD
:1023A000031F026821F0100142E80313DBB101684A
:1023B00051E8031F026821F0100142E8031393B1B2
:1023C000016851E8031F026821F0100142E803137D
:1023D0004BB1016851E8031F026821F0100142E887
:1023E0000313002BDAD101680A68D20606D5002251
:1023F00000920A680092496800910099818D01B0AD
:10240000FFF7A0B9026852686FF35F2221F8022B30
:102410008162A5E701B0FFF7DFBD000040F20810C0
:10242000C2F20000FFF792B9FEE7000094B0FEF799
:102430002DFB00240120CDE90644CDE904440190A0
:1024400005904FF4E0104FF4803102250A9001A866
:10245000CDE90214CDE90851FEF7C6FC20B1EFF337
:10246000108072B6FEE700BF0F20CDE90B054FF4D8
:102470008060CDE90E040BA802210D94FEF7AEFB9F
:1024800020B1EFF3108072B6FEE700BF002541F2E5
:102490001806CDE90355CDE90155C4F202063068AE
:1024A00040F6000440F0200030603068C4F20104BF
:1024B00000F020000B900B9830684FF4C05140F0B2
:1024C000040030603068002200F004000B900B988C
:1024D00020464FF4C057FEF7BFFA0120CDE90205B0
:1024E0000220049001A920460197FEF7ADF956F8A5
:1024F000040C002140F0010046F8040C56F8040CCE
:10250000002200F00100019001980F20FEF72AFB45
:102510000F20FEF715FB40F27006C2F2000604F52C
:102520001051304640F80C1F3F2140F2FF32CDE9F8
:1025300012550795C0E90115C0E90325C0E9055505
:10254000FEF7FCFF20B1EFF3108072B6FEE700BF8C
:1025500006F10C0512A92846FEF782FE20B1EFF322
:10256000108072B6FEE700BF60200B9000270BA919
:1025700028460022CDE90C77CDE90E77CDE910771A
:10258000FEF7DAFE20B1EFF3108072B6FEE700BF6F
:102590004FF40050069001A928460597CDE903772E
:1025A000CDE901770897FEF735FE28B1EFF31080EB
:1025B00072B600BFFEE700BF2846FEF791FE40F26C
:1025C000081004F54051C2F2000000270C234FF41C
:1025D000E13280E88600C0E90377C0E90537C761CA
:1025E000FFF76CFB20B1EFF3108072B6FEE700BF7F
:1025F00028460021FFF738F820464FF400610022FA
:10260000FEF72AFA20464FF480510122FEF724FA01
:10261000341D40F20810C2F2000021460322FFF7E9
:1026200025FCF56830780128FCD120463770FDF78D
:10263000E9FD708080B26863F4E7000010B50029FE
:102640000AD00878002807D005487844FDF7C2FE74
:10265000002801D0002010BD0248784410BD0000C1
:102660006A0000006200000000000000000000009E
:102670000102030406070809000000000102030428
:10268000010202030405060708090A0B0C0D0E0FD0
:1026900010100000C82700080000002010000000F3
:1026A00050010008D827000810000020480700004B
:1026B000700100081001000043000000F8FFFFFF58
:1026C0000040404040404040404041414141414045
:1026D00040404040404040404040404040404040FA
:1026E0004005020202020202020202020202020289
:1026F000022020202020202020202002020202028E
:1027000002029090909090901010101010101010E5
:1027100010101010101010101010101002020202F1
:102720000202888888888888080808080808080835
:102730000808080808080808080808080202020231
:102740004000000000000000000000000000000049
:102750000000000000000000000000000000000079
:102760000000000000000000000000000000000069
:102770000000000000000000000000000000000059
:102780000000000000000000000000000000000049
:102790000000000000000000000000000000000039
:1027A0000000000000000000000000000000000029
:1027B0000000000000000000000000000000000019
:1027C00000000000000000000100000010000000F8
:0827D00000127A000000000075
:04000005080000ED02
:00000001FF
