:020000040800F2
:10000000E8060020B5010008C5130008BD1300086C
:10001000C113000871020008D91300080000000095
:10002000000000000000000000000000CD130008E8
:100030008102000800000000C9130008D113000865
:10004000CF010008CF010008CF010008CF01000850
:10005000CF010008CF010008CF010008CF01000840
:10006000CF010008CF010008CF010008CF01000830
:10007000CF010008CF010008CF010008CF01000820
:10008000CF010008CF010008CF010008CF01000810
:10009000CF01000875020008CF010008CF01000859
:1000A000CF010008CF010008CF010008CF010008F0
:1000B000CF010008CF010008CF010008CF010008E0
:1000C000CF010008CF010008CF010008CF010008D0
:1000D000CF010008CF010008CF010008CF010008C0
:1000E000CF010008CF010008CF01000800F002F89E
:1000F00000F050F814A696E8000CB244B344DA4578
:1001000001D100F047F8BAE80F000FA696E83000DA
:10011000A5EB040504EB0607AAEB0704A7F101070A
:100120004FEA15154FEA3414A4F10104AC4201D38F
:1001300000F030F813F0010F18BFFB1A43F0010371
:1001400000F001F8DBE7184790140000B01400003D
:10015000103A24BF78C878C1FAD8520724BF30C8F3
:1001600030C144BF04680C60704700007047000055
:100170000023002400250026103A28BF78C1FBD8B0
:10018000520728BF30C148BF0B6070471FB51FBD65
:1001900010B510BD00F031F81146FFF7F7FF01F080
:1001A0001DF900F04FF803B4FFF7F2FF03BC00F0B5
:1001B00057F800000948804709480047FEE7FEE776
:1001C000FEE7FEE7FEE7FEE7FEE7FEE7FEE7FEE707
:1001D00004480549054A064B70470000D51300083E
:1001E000ED000008E8000020E8060020E8020020FA
:1001F000E8020020704770477047754600F02CF801
:10020000AE4605006946534620F00700854618B003
:1002100020B5FFF7DDFFBDE820404FF000064FF0AE
:1002200000074FF000084FF0000BAC46ACE8C009E7
:10023000ACE8C009ACE8C009ACE8C00921F007018E
:100240008D46704710B50446AFF300802046BDE8E8
:100250001040FFF7A8BF00000048704718000020BA
:1002600001491820ABBEFEE72600020070470000DF
:10027000FEE7000040F2BC00C2F2000000F07CB9D2
:100280007047000090F82020013A012A08D8006841
:1002900000F114020020136819431160704700BF79
:1002A00000F1240201204FF48021136819431160EA
:1002B0007047000010B590F820E0D0F800C0AEF113
:1002C000010EBEF1010FDCF808E011D81EF0E05F6E
:1002D00018D0CEF301640120A04018608B68DBB118
:1002E000D1F804E0C86840EACE0040EA030E17E007
:1002F00000F1240301204FF480211A681143196092
:1003000010BD00BF00F1240301204FF400111A6852
:100310001143196010BD00BF0868CB6843EA405E16
:100320000CF5C07000EB0413240140F804E00C69E4
:10033000184640F8044F097D012903D1016841F4B2
:100340008071016050680121D860106898600020B9
:100350001A681143196010BD026890F82030013B03
:10036000012B29D8B0B5D2F80002012340F00100DA
:10037000C2F80002D1F814E0CC690EF01F0003FAB5
:1003800000F0D2F81C326FEA000C8343012CC2F853
:100390001C3217D06CBBD2F80C3203EA0C03C2F843
:1003A0000C32CB688C8844EA034302EBCE04C4F8D9
:1003B00040320B4615E000BF416A41F480214162A2
:1003C00001207047D2F80C320343C2F80C320B689C
:1003D0008C8844EA034302EBCE04C4F8403201F1B6
:1003E0000C038D681B8802EBCE0443EA0543C4F876
:1003F0004432D2F804328C6943EA0005D1F810E0A7
:10040000096A002C08BF03EA0C05C2F80452D2F8AE
:100410001432BEF1000F43EA000408BF03EA0C04E3
:100420000129C2F8144204D1D2F81C120843C2F8C0
:100430001C02D2F8000220F00100C2F800020020E5
:10044000B0BD000070470000B0B590F82040013CFE
:10045000012C7DD8D0F800C000290CBFDCF80C407E
:10046000DCF81040A4077DD00CF5D8754FEA011CCC
:1004700055F80C4014F00404946055F80CE005EBBA
:10048000011C19BF4FEADE0555604FEA5E55156045
:10049000DCF80050E64605F00205D5605EF8044F32
:1004A00024075ABFDEF8004004F00F04082414614A
:1004B000DEF800400029C4F307249461DEF8005000
:1004C0004FEA15455561DCF808201A70026802EB06
:1004D0000112D2F8B8214FEA12225A70026802EBD8
:1004E0000112D2F8B8214FEA12429A70026802EB68
:1004F0000112D2F8B8214FEA1262DA70026802EBF8
:100500000112D2F8BC211A71026802EB0112D2F872
:10051000BC214FEA12225A71026802EB0112D2F892
:10052000BC214FEA12429A71026802EB0112D2F822
:10053000BC214FEA1262DA7100680CBF00F10C01B5
:1005400000F11001002020220B681A430A60B0BDA0
:1005500000F1240101204FF480220B681A430A6045
:10056000B0BD00BF00F1240101204FF400120B6860
:100570001A430A60B0BD00002DE9F04F81B0044677
:1005800000684669D0F804908768D0F80CB0D0F8BD
:1005900010A0D0F81880F10704D1002530071DD431
:1005A00024E000BFF90710D00121BA07816009D407
:1005B000780700F1AF80380700F1B680204600F0E0
:1005C00015FA02E0204600F013FA0025F80500F1C4
:1005D0008780F80300F1B180300707D51BF01000C9
:1005E00004D0206845F400751021C160700708D55B
:1005F0001BF0080005D020680821C160204600F0EB
:10060000ADF9B00706D52068C068800702D0204643
:1006100000F0A6F9700607D51AF0100004D0206883
:1006200045F4806510210161B00608D51AF0080074
:1006300005D0206808210161204600F093F9F006FA
:1006400006D520680069800702D0204600F08CF9AA
:10065000B00308D519F0100005D0206810214160C2
:10066000204600F093F9F00308D519F0080005D0F2
:10067000206808214160204600F0C4F9300440F1B0
:100680009B805FEA497040F1948006F4807008EA2C
:10069000102028435FEA8871014648BF41F00201FB
:1006A000B20558BF01465FEA48700D4648BF45F0A5
:1006B0000405700558BF0D46300540F17A8018F0EA
:1006C000700000F076801038000905286CD8DFE84B
:1006D00000F003655D61596945F0080564E000BFFD
:1006E00020684FF48071BA0581600BD4780515D469
:1006F00038051DD4204600F07DF9F8037FF56CAF76
:100700001BE000BF204600F077F9F8037FF564AFE7
:1007100013E000BF4FF4006558E700BF05F5005532
:10072000F8037FF559AF08E04FF480554EE700BF5E
:1007300005F58045F8037FF54FAF20684FF4803111
:10074000BA0381600AD4780310D4380314D4204645
:1007500000F054F930073FF541AF47E7204600F07D
:100760004FF930073FF53AAF40E700BF05F50045C8
:1007700030073FF533AF39E705F5803530073FF5F2
:100780002DAF33E745F080050EE000BF45F02005B2
:100790000AE000BF45F0400506E000BF45F0100547
:1007A00002E000BF45F480752068816921F0700186
:1007B000816120680421416055B1606A40EA050109
:1007C0002046616201B0BDE8F04FFFF73BBE00BFBD
:1007D00001B0BDE8F08F0000002804BF0120704781
:1007E000B0B5044690F8200010B9204600F06EF82D
:1007F0002068016841F00101016000F02FFA054610
:1008000020684168C90705D100F028FA401B0B2871
:10081000F6D310E0016821F00201016000F01EFA39
:10082000054600BF2068416889070DD500F016FA1B
:10083000401B0B28F6D3606A052140F4003060624B
:10084000012084F82010B0BD217E0268012922F029
:10085000800208BF80320260617E0268012922F0B6
:10086000400208BF40320260A17E0268012922F0E6
:10087000200208BF20320260E17E0268012922F0D6
:10088000100218BF10320260217F0268012922F095
:10089000080208BF08320260617F0268012922F065
:1008A000040208BF04320260D4E901C2D4E903356E
:1008B00061691A432A431143ACF101021143C1613A
:1008C00000200121606284F82010B0BDB0B586B070
:1008D00040F60004C4F201040068A4F5244200219B
:1008E00090420591CDE90311029101D006B0B0BD4F
:1008F00041F21800C4F20200426802AD42F00072F8
:100900004260426802F000720192019A026842F06D
:1009100004020260006800F00400019001984FF4A6
:100920000060CDE90201012004902046294600F034
:100930007FF84FF48050029002200390032005902E
:100940002046294600F074F815200221002200F00C
:1009500005FA152000F0F0F906B0B0BD70470000B0
:100960007047000070470000B0B540F27804C2F252
:10097000000404F1280204F1080301210125FFF716
:1009800063FDA06B022808BF2560B0BD7047000062
:10099000B0B5044690F8200001281DD1022084F84B
:1009A00020002068016821F00101016000F056F983
:1009B000054600BF20684068C00713D000F04EF91C
:1009C000401B0B28F6D3606A40F4003060620520BB
:1009D00084F820000120B0BD606A40F4002060620D
:1009E0000120B0BD00206062B0BD00007047000073
:1009F000704700007047000070470000704700001B
:100A00007047000070470000B0B5044600F026F9BA
:100A1000054640F20000C2F200000078611C18BFD9
:100A2000044400BF00F01AF9401BA042FAD3B0BD45
:100A30002DE9F04F82B00E68002E00F0FD8041F2EB
:100A40000042C4F20102042340F2004E904208BF6B
:100A500003234FF6FF7CC4F2010E00930024012310
:100A6000C1F2100C4FF0000A4FF000094BE000BF3C
:100A700041F20002C4F20102009F904208BF022727
:100A800004F00C030F229A402BEA020207FA03F348
:100A90004FEA9A051A4346F825204E6840F20C4565
:100AA000F202DEF8082054BF22EA080242EA0802F5
:100AB000C4F20105CEF808202A68B30254BF22EA26
:100AC000080242EA08022A60B303DEF8042054BF99
:100AD00022EA080242EA0802F303CEF80420DEF814
:100AE00000204FF0010354BF22EA080242EA080244
:100AF000CEF800200E680AF1010A36FA0AF204F173
:100B0000040400F0998003FA0AFB16EA0B08F1D0FE
:100B10004E68664512DC122E56D8DFE806F0350B1B
:100B20004D49555555555555555555555555554599
:100B3000510000BFD1F80C9046E000BF4FF6FF72A5
:100B4000C1F2210296420FDC0022C1F2110296424C
:100B50001AD00022C1F21202964215D00022C1F230
:100B60002102964210D02FE00022C1F222029642CA
:100B70000AD00022C1F23102964205D00022C1F211
:100B80003202964220D100BF8A684AB1012A14BFBE
:100B9000C0F814B0C0F810B04FF0080914E000BF5E
:100BA0004FF0040910E000BFCA6802F104090BE02D
:100BB0004FF0000908E000BFCA6802F1080903E02D
:100BC000CA6802F10C0900BF02462646B8F5807FCC
:100BD00024BF0432203E17680F25B54027EA0505DB
:100BE00009FA06F635431560CA79D2067FF582AF59
:100BF00041F21803C4F202031A68AEF57E7642F0A1
:100C000001021A601A6802F001020192019A2AF0A8
:100C1000030256F802B040F60002C4F2010290420C
:100C200008D040F60042C4F2010290427FF420AFA7
:100C3000012725E7002723E702B0BDE8F08F000079
:100C4000C26802EA0103914341EA0341016170472E
:100C5000002A08BF090401617047000040F2E40067
:100C6000C2F200000068704740F2000040F2E40168
:100C7000C2F20000C2F2000100780A681044086065
:100C80007047000080B542F20000C4F20200016823
:100C900041F010010160032000F08CF80F2000F0FB
:100CA00005F800F027F8002080BD000070B540F284
:100CB0000006C2F2000640F208013278C2F20001DA
:100CC0004FF47A730968B3FBF2F20446B1FBF2F118
:100CD000084600F05DFB0F2C4FF0010508D838B92D
:100CE0004FF0FF3021460022002500F037F87460F5
:100CF000284670BD82B041F21800C4F202000168BB
:100D0000022241F001010160016801F0010101913D
:100D10000199416841F080514160406800F0805085
:100D2000009000980420C4F20100016862F31A6187
:100D3000016002B070470000002848BF704700F013
:100D40001F01012202FA01F11C2202EAD0004EF238
:100D50000012CEF2000281507047000010B54EF62E
:100D60000C5CCEF2000CDCF80030C3F3022E8EF0E7
:100D70000704042C28BF0424BEF103034FF0FF3EF8
:100D80000EFA04F438BF0023A14399400EFA03F38E
:100D90009A43114300F00F0200F160430901043A45
:100DA00003F564436244002848BF02F10C03197044
:100DB00010BD00004EF60C51CEF200010A684FF64D
:100DC000FF031A4060F30A2242F0806040F0FD7099
:100DD00008607047002804BF012070472DE9F043E8
:100DE00081B042F20008C4F202080446D8F80000BC
:100DF0000D4600F0070088420CD2D8F8000020F021
:100E000007002843C8F80000D8F8000000F00700E9
:100E1000A8426CD1206841F204098107C4F202099A
:100E200017D5410705D5D9F8001041F4E061C9F89C
:100E30000010010705D5D9F8001041F46051C9F838
:100E40000010D9F80010A26821F0F0011143C9F890
:100E50000010C00742D1D8F8000000F00700A842F7
:100E60000CD9D8F8000020F007002843C8F800008B
:100E7000D8F8000000F00700A84238D120684107E8
:100E800007D5D9F80010E26821F4E0611143C9F8F0
:100E90000010000708D5D9F80000216920F460503F
:100EA00040EAC100C9F80000D9F8002002F00C00A7
:100EB000082841F20020C0F27A004DD141F2C85317
:100EC000C2F38341C0F60003595CD20338D440F624
:100ED0000010C0F23D0048433EE000BF606859F892
:100EE000041C022808D0012826D1890306D4012039
:100EF00001B0BDE8F08300BF8901F8D5D9F8001032
:100F000021F003010843C9F80000FFF7A7FE0646D9
:100F100041F28837D9F80000616800F00C00B0EBAE
:100F2000810F98D0FFF79AFE801BB842F2D90320B8
:100F300001B0BDE8F08300BF8907D8D5DEE700BF68
:100F4000D9F8002041F2C653C2F34042C0F6000374
:100F50009A5C4843B0FBF2F0D9F8001041F2B65267
:100F6000C1F30311C0F60002515C40F2080220FAFE
:100F700001F140F20400C2F200000068C2F2000277
:100F80001160FFF793FE002001B0BDE8F083000080
:100F9000002804BF012070472DE9F04182B00446CB
:100FA000007841F20006C007C4F202060CD0706857
:100FB00000F00C00042840F081803068800303D5E5
:100FC0006068002800F04681207880071BD5706893
:100FD00010F00C0F09D0706800F00C00082840F0E9
:100FE00087807068C00300F183803068800703D574
:100FF0002069012840F02E813068616920F0F800F6
:1010000040EAC10030602078000713D42078400700
:101010002CD4E569002D00F01881706800F00C00F8
:10102000082840F0A780012D40F00481012002B083
:10103000BDE8F081A069002800F084800020C4F29F
:1010400042200121C0F88014FFF708FE054600BFCA
:10105000706A800700F1B280FFF700FE401B022893
:10106000F6D9032002B0BDE8F08100BFF0695FEA65
:10107000C00808D4F06940F08050F061F06900F0D9
:1010800080500090009847F20007C4F200073868CB
:10109000C00549D4386840F480703860FFF7DEFD41
:1010A000054600BF3868C0053ED4FFF7D7FD401B9A
:1010B0006428F7D9032002B0BDE8F081706800F021
:1010C0000C00082803D17068C0033FF576AF616853
:1010D0003068002900F00C81B1F5A02F00F00081EC
:1010E000B1F5803F40F01A8140F480301CE100BF30
:1010F0002069002840F20000C4F2422000F08880FD
:1011000001210160FFF7AAFD054600BF3068800796
:101110003FF572AFFFF7A2FD401B0228F6D903206E
:1011200002B0BDE8F08100BFE168306A002900F03C
:101130009D80052900F09280012940F0AF8040F0A9
:101140000100B1E00020C4F242200021C0F8801468
:10115000FFF784FD054600BF706A80077FF556AF34
:10116000FFF77CFD401B0228F6D9032002B0BDE842
:10117000F08100BF0027C4F2422700203866FFF745
:101180006DFD022D05460DD13068800140F1DE80F5
:10119000FFF764FD401B02284FF00300F4D902B0B2
:1011A000BDE8F081306880014FD5FFF757FD401B47
:1011B00002284FF00300F5D9F1E700BF40F2080024
:1011C000C2F20000006844F6D351C1F26201A0FBF4
:1011D0000101480A019000BF00BF0198411E00288C
:1011E00001913FF413AF00BF0198411E0028019107
:1011F0003FF40CAF00BF0198411E002801913FF45D
:1012000005AF00BF0198411E00280191E4D1FDE621
:1012100000210160FFF722FD054600BF306880070E
:101220007FF5F1AEFFF71AFD401B02284FF00300D7
:10123000F4D9B4E77068216A00F480328A4209D197
:10124000616A00F47010884204D1002002B0BDE849
:10125000F08100BF012002B0BDE8F08140F0040041
:101260003062306A40F001001EE000BF20F0010053
:101270003062306A20F004003062FFF7EFFC054670
:1012800041F28837306A800720D5FFF7E7FC401B22
:10129000B8424FF00300F5D981E700BF20F001000C
:1012A0003062306A20F004003062FFF7D7FC054658
:1012B00041F28837306A800708D4FFF7CFFC401B23
:1012C000B842F7D9032002B0BDE8F081B8F1000FB1
:1012D0003FF59FAEF06920F08050F06199E600BFC5
:1012E00040F480203060306840F480301CE000BF63
:1012F00020F480303060306820F480203060FFF7C8
:10130000ADFC0546306880037FF55EAEFFF7A6FCB6
:10131000401B64284FF00300F4D940E720F48030EC
:101320003060306820F480203060FFF797FC05467D
:10133000306880033FF548AEFFF790FC401B6428FF
:10134000F6D9032002B0BDE8F08100BF206AB0F5F5
:10135000803F05D17168A26821F4003111437160AA
:101360007168626A21F474111143084370600120AE
:101370003866FFF773FC0446306880013FF565AFBF
:10138000FFF76CFC001B02284FF00300F4D906E7BE
:10139000411E0020B0EB116F1CBF012070474EF2C0
:1013A0001002CEF2000251604EF62351CEF200013F
:1013B000F0230B700721906011607047FEE700007A
:1013C000FEE70000FEE700007047000070470000E5
:1013D000FFF74ABC70470000FEE7000090B0FFF73F
:1013E00051FC00240120CDE90B44CDE909440690CD
:1013F0000A904FF4E0104FF4803102250F9006A8B8
:10140000CDE90714CDE90D51FFF7C2FD20B1EFF38F
:10141000108072B6FEE700BF0F20CDE901054FF442
:101420008060CDE9040401A802210394FFF7D2FCF7
:1014300020B1EFF3108072B6FEE700BF002541F245
:101440001800CDE90855CDE90655C4F2020001683F
:1014500040F6004441F0200101600168C4F201043B
:1014600001F02001019101990168002241F0080179
:1014700001600168042601F00801019101990168E9
:1014800041F0040101600068042100F004000190B3
:1014900001982046FFF7DCFB02200127099006A9EE
:1014A00020460696CDE90775FFF7C2FA40F27806A6
:1014B000C2F20006A4F52841304640F8441F12212C
:1014C0004FF48032C0E90115C0E90352C0E9055567
:1014D0008583FFF781F928B1EFF3108072B600BF62
:1014E000FEE700BF0A20CDE90655CDE90855CDE954
:1014F0000C5706F14405CDE90A7006A928460E9757
:10150000FEF72AFF20B1EFF3108072B6FEE700BFAE
:101510002846FFF73DFA28B1EFF3108072B600BFFE
:10152000FEE700BF28461021FEF7ACFE20B1EFF326
:10153000108072B6FEE700BF0420306240F2031054
:10154000374640F20C0847F8100F06F10409C2F2C2
:1015500000084FF0000A2846394642464B46C6E985
:1015600006AAFEF7A7FE4FF47A70FFF74DFA284659
:10157000394642464B46FEF79DFE4FF47A70FFF720
:1015800043FA306802213162A0B120460421FFF7FE
:1015900057FB4FF47A70FFF737FA20460421FFF724
:1015A0004FFB4FF47A70FFF72FFAC6F800A000BF88
:1015B000FEE700BFFEE7000000000000000001029F
:1015C00003040607080901020203040506070809C7
:1015D0000A0B0C0D0E0F1010F8150008000000206B
:1015E0001800000050010008101600081800002024
:1015F000D00600007001000801000000100000008B
:1016000000127A005445535400000000000000000E
:04000005080000ED02
:00000001FF
