:020000040800F2
:10000000B80F00205D020008F92E0008692D0008D5
:10001000F52E0008ED060008595E000800000000FB
:100020000000000000000000000000000D2F00088C
:10003000FD06000800000000092F0008112F00082D
:1000400077020008770200087702000877020008AC
:10005000770200087702000801070008770200080D
:10006000770200087702000877020008770200088C
:10007000770200087702000877020008770200087C
:10008000770200087702000877020008770200086C
:10009000F1060008770200087702000877020008DE
:1000A000770200087702000877020008770200084C
:1000B000770200087702000877020008770200083C
:1000C000770200087702000877020008770200082C
:1000D000770200087702000877020008770200081C
:1000E000770200087702000877020008770200080C
:1000F00077020008770200087702000877020008FC
:1001000077020008770200087702000877020008EB
:1001100077020008770200087702000877020008DB
:1001200077020008770200087702000877020008CB
:1001300077020008770200087702000877020008BB
:10014000770200087702000877020008FD2E0008F9
:10015000770200087702000877020008770200089B
:10016000770200087702000877020008770200088B
:1001700077020008770200087702000800000000FC
:10018000770200087702000800F002F800F056F845
:1001900014A696E8000CB244B344DA4501D100F04D
:1001A0004DF8BAE80F000FA696E83000A5EB04055D
:1001B00004EB0607AAEB0704A7F101074FEA1515A0
:1001C0004FEA3414A4F10104AC4201D300F036F834
:1001D00013F0010F18BFFB1A43F0010300F001F800
:1001E000DBE718475060000070600000103A24BF41
:1001F00078C878C1FAD8520724BF30C830C144BF8C
:1002000004680C6070470000704700000023002461
:1002100000250026103A28BF78C1FBD8520728BF16
:1002200030C148BF0B6070471FB505F0E8FF9DE87F
:10023000030000F04FF91FBD10B510BD00F0D3F959
:100240001146FFF7F1FF05F009FE00F0F1F903B4E4
:10025000FFF7F2FF03BC00F021FA000009488047D5
:1002600009480047FEE7FEE7FEE7FEE7FEE7FEE798
:10027000FEE7FEE7FEE7FEE704480549054A064BB0
:1002800070470000152F000889010008B8090020F8
:10029000B80F0020B80B0020B80B002070B5A0FBF1
:1002A0000140B4F1805170F1000024BF002070BD06
:1002B000204600F03EF905001CBF214600F0A1F8E1
:1002C000284670BD70B50446051F00F0E7F80068C9
:1002D000002C14BF446870BD002C18BFAC423CBF5A
:1002E00020466468F8D301680A18AA4218BF45601E
:1002F00003D12A6805461144016028684119A142CA
:100300001CBF6C6070BD616869602168084428602A
:1003100070BD53EA020C00F069802DE9F04B4FF0FC
:100320000006002B1FBFB3FA83F503FA05F424FA85
:1003300005F65E4012BF1643B2FA82F502FA05F4E2
:10034000C5F120051EBF22FA05FC44EA0C04203545
:1003500056EA044C4FEA144418BF641C4FF00008DE
:100360004FF00009904271EB030C39D3002919BFFB
:10037000B1FA81F701FA07F6B0FA80F700FA07F64A
:10038000C7F120071EBF20FA07FC46EA0C062037FB
:10039000B6FBF4FCA7EB0507103F07F01F0BCBF1F2
:1003A00020062CFA06F60CFA0BFB44BFB3460026D7
:1003B000202FA4BF5E464FF0000B5BEA060C08BF7F
:1003C0004FF0010B19EB0B0948EB0608ABFB027C65
:1003D00006FB02CC0BFB03CCC01B71EB0C01C1E78D
:1003E0000B46024641464846BDE8F08B13B508432C
:1003F00018BF4FF0FF300146AFF30080BDE81C404E
:1004000070474FF000020429C0F0128010F0030C76
:1004100000F01B80CCF1040CBCF1020F18BF00F8F7
:10042000012BA8BF20F8022BA1EB0C0100F00DB8A6
:100430005FEAC17C24BF00F8012B00F8012B48BF04
:1004400000F8012B70474FF0000200B513469446A8
:100450009646203922BFA0E80C50A0E80C50B1F11C
:100460002001BFF4F7AF090728BFA0E80C5048BF30
:100470000CC05DF804EB890028BF40F8042B08BFCE
:10048000704748BF20F8022B11F0804F18BF00F8CA
:10049000012B704770477047704700000048704755
:1004A00040000020704770477047704738B50446D9
:1004B0000A4600206946AFF30080002808BF38BD17
:1004C00002460099204600F06DF8012038BD012059
:1004D00000F082B8F8B5AFF30080054600200C4666
:1004E0000C2000BF0646A819A0420DD93246694625
:1004F0000020AFF30080070008BF00F06DF80098FF
:10050000A04218BF0546C419FFF7C8FF056007469B
:10051000F01D20F007004619284600F03DF8B442CF
:1005200008BFF8BDA21B31463868BDE8F84000F0AE
:1005300039B870B50646FFF7B1FF056806F10B0044
:1005400020F00704B4429CBF002070BD2B466A68AF
:10055000BAB11068A04210D304F1080188423CBF30
:100560005068586007D35168101941601168091B21
:10057000016058601460101D70BD13465268002A57
:10058000E7D121462846FFF791FF0028DED170BD54
:10059000004870473800002000210160416070472A
:1005A0000C207047034640688C46002818BF8842DC
:1005B0003CBF03464068F8D318681844884207D007
:1005C0000CF1030020F00700001D411A521A0146E9
:1005D000081D0A60FFF776BE10B500F037F8BDE8D9
:1005E000104000F02EB87546FFF7D2FFAE4605006A
:1005F0006946534620F00700854618B020B5FFF73E
:100600003BFEBDE820404FF000064FF000074FF0E2
:1006100000084FF0000BAC46ACE8C009ACE8C009DC
:10062000ACE8C009ACE8C00921F007018D4670476D
:1006300010B50446AFF300802046BDE81040FFF738
:1006400006BE002801D000F029B8704710B5012877
:1006500005D0002103A000F028F8012010BD09A159
:10066000F8E7000053494752544D454D3A204F7525
:1006700074206F662068656170206D656D6F72799A
:10068000000000003A2048656170206D656D6F7252
:100690007920636F72727570746564000149182067
:1006A000ABBEFEE726000200704770B505460C465B
:1006B0000A2000E06D1C00F011F835B12878002800
:1006C000F8D102E0641C00F009F814B12078002889
:1006D000F8D1BDE870400A20AFF3008008B5694644
:1006E0008DF800000320ABBE08BD0000FEE700004F
:1006F00040F2DC00C2F2000000F00CB970470000CC
:10070000012000F099BB0000FEE7000090F82020D7
:10071000013A012A08D8006800F114020020136889
:1007200019431160704700BF00F1240201204FF40B
:1007300080211368194311607047000010B590F8CC
:1007400020E0D0F800C0AEF1010EBEF1010FDCF8E0
:1007500008E011D81EF0E05F18D0CEF3016401204C
:10076000A04018608B68DBB1D1F804E0C86840EAAB
:10077000CE0040EA030E17E000F1240301204FF4FD
:1007800080211A681143196010BD00BF00F12403D5
:1007900001204FF400111A681143196010BD00BF09
:1007A0000868CB6843EA405E0CF5C07000EB0413A8
:1007B000240140F804E00C69184640F8044F097D14
:1007C000012903D1016841F4807101605068012161
:1007D000D8601068986000201A681143196010BD35
:1007E00070470000B0B590F82040013C012C7DD846
:1007F000D0F800C000290CBFDCF80C40DCF8104039
:10080000A4077DD00CF5D8754FEA011C55F80C40B3
:1008100014F00404946055F80CE005EB011C19BFBA
:100820004FEADE0555604FEA5E551560DCF8005072
:10083000E64605F00205D5605EF8044F24075ABF6E
:10084000DEF8004004F00F0408241461DEF80040D4
:100850000029C4F307249461DEF800504FEA1545DF
:100860005561DCF808201A70026802EB0112D2F818
:10087000B8214FEA12225A70026802EB0112D2F834
:10088000B8214FEA12429A70026802EB0112D2F8C4
:10089000B8214FEA1262DA70026802EB0112D2F854
:1008A000BC211A71026802EB0112D2F8BC214FEA96
:1008B00012225A71026802EB0112D2F8BC214FEAEF
:1008C00012429A71026802EB0112D2F8BC214FEA7F
:1008D0001262DA7100680CBF00F10C0100F1100126
:1008E000002020220B681A430A60B0BD00F12401E9
:1008F00001204FF480220B681A430A60B0BD00BF8C
:1009000000F1240101204FF400120B681A430A6021
:10091000B0BD00002DE9F04F81B004460068466983
:10092000D0F804908768D0F80CB0D0F810A0D0F8B8
:100930001880F10704D1002530071DD424E000BF42
:10094000F90710D00121BA07816009D4780700F1B6
:10095000AF80380700F1B680204600F023FA02E0AD
:10096000204600F021FA0025F80500F18780F80301
:1009700000F1B180300707D51BF0100004D02068CB
:1009800045F400751021C160700708D51BF0080000
:1009900005D020680821C160204600F0B9F9B007F1
:1009A00006D52068C068800702D0204600F0B2F962
:1009B000700607D51AF0100004D0206845F4806551
:1009C00010210161B00608D51AF0080005D0206892
:1009D00008210161204600F0B1F9F00606D5206833
:1009E0000069800702D0204600F0AAF9B00308D5BC
:1009F00019F0100005D0206810214160204600F059
:100A0000A1F9F00308D519F0080005D020680821E5
:100A10004160204600F0D2F9300440F19B805FEA4B
:100A2000497040F1948006F4807008EA1020284351
:100A30005FEA8871014648BF41F00201B20558BF24
:100A400001465FEA48700D4648BF45F00405700551
:100A500058BF0D46300540F17A8018F0700000F064
:100A600076801038000905286CD8DFE800F00365AF
:100A70005D61596945F0080564E000BF20684FF4E6
:100A80008071BA0581600BD4780515D438051DD462
:100A9000204600F08BF9F8037FF56CAF1BE000BF38
:100AA000204600F085F9F8037FF564AF13E000BF3E
:100AB0004FF4006558E700BF05F50055F8037FF5D2
:100AC00059AF08E04FF480554EE700BF05F580456B
:100AD000F8037FF54FAF20684FF48031BA0381608F
:100AE0000AD4780310D4380314D4204600F062F9F5
:100AF00030073FF541AF47E7204600F05DF930078A
:100B00003FF53AAF40E700BF05F5004530073FF538
:100B100033AF39E705F5803530073FF52DAF33E7C3
:100B200045F080050EE000BF45F020050AE000BF5B
:100B300045F0400506E000BF45F0100502E000BFAB
:100B400045F480752068816921F070018161206819
:100B50000421416055B1606A40EA050120466162A6
:100B600001B0BDE8F04FFFF73BBE00BF01B0BDE8EC
:100B7000F08F0000002804BF01207047B0B5044684
:100B800090F8200010B9204600F06EF82068016847
:100B900041F00101016000F039FA05462068416822
:100BA000C90705D100F032FA401B0B28F6D310E03C
:100BB000016821F00201016000F028FA054600BF3B
:100BC0002068416889070DD500F020FA401B0B28EA
:100BD000F6D3606A052140F400306062012084F899
:100BE0002010B0BD217E0268012922F0800208BFDA
:100BF00080320260617E0268012922F0400208BF53
:100C000040320260A17E0268012922F0200208BF62
:100C100020320260E17E0268012922F0100218BF32
:100C200010320260217F0268012922F0080208BF09
:100C300008320260617F0268012922F0040208BFC5
:100C400004320260D4E901C2D4E9033561691A4370
:100C50002A431143ACF101021143C161002001217B
:100C6000606284F82010B0BD2DE9F04387B040F6F3
:100C70000044C4F202040068A4F5D431002688427E
:100C8000CDE90566CDE90366029603D007B0BDE85D
:100C9000F08300BF43F630000196C4F20200016900
:100CA000022741F000710161016902AD01F000719C
:100CB00001910199019601684FF0030841F0080184
:100CC000016000684FF0090900F0080001900198E8
:100CD00001200290CDE9037020462946CDF814800A
:100CE000CDF8189000F0B4F804A880E8400320463E
:100CF0002946CDE9027700F0ABF81420002100224C
:100D000001F0AAFB142001F095FB07B0BDE8F083C9
:100D10007047000010B540F29804C2F2000404F1DC
:100D2000440004F1280204F108030021FFF75AFDF2
:100D3000A06B022804BF0120206010BD7047000096
:100D40007047000070470000B0B5044690F82000DE
:100D500001281DD1022084F820002068016821F0BC
:100D60000101016000F052F9054600BF20684068AB
:100D7000C00713D000F04AF9401B0B28F6D3606A75
:100D800040F400306062052084F820000120B0BDEE
:100D9000606A40F4002060620120B0BD0020606203
:100DA000B0BD0000704700007047000070470000B1
:100DB0007047000070470000704700007047000057
:100DC000B0B5044600F022F9054640F20000C2F238
:100DD00000000078611C18BF044400BF00F016F941
:100DE000401BA042FAD3B0BD012818BF704710B510
:100DF00040F22C0240F29803C2F2000245F2521077
:100E0000C2F20003108003F1440003F11001043327
:100E1000FFF794FC40F60044C4F2020420464FF46D
:100E20000051012200F0ECF820464FF480510022DE
:100E3000BDE8104000F0E4B843F61441C4F20101EB
:100E40000A68024214BF08607047FFF7CDBF000078
:100E50002DE9F04F83B000F1200200F13E4741F64A
:100E60000045009207F1FF77C4F2020508224FEA1D
:100E7000B726A84208BF072200254FF000084FF010
:100E80000009072E38BF4FEAB72201920AE000BFDF
:100E900009F1010908F10208B9F1100F05F1040583
:100EA00000F0A2800F68012202FA09FE17EA0E0A7A
:100EB000EED0D1F804C003220CF003077E1E02FA24
:100EC00008F4012E6FEA040B12D88468CE6804EA95
:100ED0000B0406FA08F634438460446824EA0E06DC
:100EE000CCF3001404FA09F42643466004E000BF82
:100EF000032F01D103271EE0C6688C6806EA0B06A3
:100F000004FA08F42643022FC66014D16FF00302DE
:100F1000009E02EA590756F807C005F01C040F228C
:100F20000B69A2402CEA0202A3401A43F251D1F805
:100F300004C00CF00307026807FA08F302EA0B0288
:100F40001A431CF4403F0260A2D0002243F644033F
:100F50000292C4F202031A6843F6004442F480424B
:100F60001A601A68C4F2010402F480420292029AE2
:100F700029F003024FF6084C2244CFF6FF7C52F8CA
:100F80000C3005F00C070F26BE40B343019E06FA55
:100F900007F73B4342F80C30A2684B6842EA0A0765
:100FA00043F60C4CDE0258BF22EA0A07A760C4F2DF
:100FB000010CDCF800209E0242EA0A0758BF22EA30
:100FC0000A07CCF8007062689E0342EA0A0758BF1D
:100FD00022EA0A0767602268DB0342EA0A0758BF71
:100FE00022EA0A07276053E703B0BDE8F08F00004C
:100FF000426902EA0103914341EA0341816170477A
:10100000002A08BF090481617047000040F6B4104F
:10101000C2F2000000687047D0F8DC0302F012BE94
:10102000D0F8DC0302F01ABE006803F0E3BB000056
:10103000006803F0E3BB0000C1EB011100EB81008D
:1010400090F84C0070470000C1EB011100EB8100EB
:10105000806B704790F8D423012A04BF02207047A8
:1010600010B50268012380F8D4330446104603F01B
:10107000D5FB002084F8D40310BD00002DE9F04F0B
:1010800083B0044690F8D403012803D1022003B0B2
:10109000BDE8F08F012084F8D403C1EB011004EB0C
:1010A000800B0BF8143F02F07F008BF80200D00990
:1010B000DDE90D958BF803002068002698468BF833
:1010C00005608A468BF801108BF81290ABF8066029
:1010D0001746ABF8106003F091FBB9F1010F0DD189
:1010E000BC2D294628BFBC2100280C9818BF2946D2
:1010F000012808BF0D46014601E000BF0C99206899
:101100008BF80410ABF81450CDE9001951463A465B
:101110004346029503F02EFC84F8D46303B0BDE887
:10112000F08F0000704700002DE9F041DDE9066412
:101130008C46C1EB0111DDE908E500EB8107002ECB
:1011400007F11401FA7587F8263006BF4D710325A3
:101150000225032B4FF000088D7518D80027DFE813
:1011600003F00715030300BF52B191F8282009E0EE
:10117000012E0CD1D2B18A79012AF6D007E000BF46
:1011800091F82920002A18BF012257008F750368A3
:1011900082798C61A1F83880C1E908E8184681F8A5
:1011A00001C0BDE8F04103F07DBC00BFBEF1000FFF
:1011B00006D091F82920002A18BF0227E6E700BFD1
:1011C000012281F829200227E0E700002DE9F04FF5
:1011D00085B0D0F800800446404603F01BFB012890
:1011E00040F08884206803F06DFF002800F08284BE
:1011F000206803F067FF01462068890244BF4FF46E
:101200000011416103F05EFF01462068C90244BF3E
:101210004FF48011416103F055FF014620684901F8
:1012200044BF4FF08061416103F04CFF01462068EC
:10123000890744BF0221416103F044FF0146206851
:10124000890018D54FF000514161D8F84014C90702
:1012500011D14046102103F06DFA404603F00AFA1E
:10126000607A022803D12068012103F003FF2046A1
:10127000FFF7D6FE206803F025FF2668C0011CD5C5
:10128000D6F840040490D6F840040390039820F068
:101290002E0003900498800700F1D683049800077D
:1012A00000F1E0830498800603D5039840F0200005
:1012B00003900398C6F840042668304603F002FF06
:1012C000000701D4206805E0204600F0C7FC206834
:1012D0000821416103F0F6FE01462068890140F1D2
:1012E0008B8303F0DBFB61790290002900F080839F
:1012F0004FF4A0654FF000094FF0000BCDF80480CB
:1013000013E000BFA8194FF400718160206800BF8E
:10131000514603F083FA60790BF1010B09F13C09A6
:10132000834505F1200580F0638302990BF00F00DF
:1013300021FA00F0C007EED058F8057026685FFA71
:101340008BFA3046514603F0B5FE39044FEA40703F
:1013500066D4002800F182802068514603F0AAFE7E
:10136000800600F189802068514603F0A3FE8005C5
:10137000C8D42068514603F09DFEC00740F0AE80FF
:101380002068514603F096FE400600F1B7812068C0
:10139000514603F08FFE000700F1E08120685146BE
:1013A00003F088FEC00600F1E1812068514603F099
:1013B00081FE000600F17A822068514603F07AFE31
:1013C000400500F187822068514603F073FE8007D4
:1013D000A1D5A9190220886004EB090090F84D20DE
:1013E000013A082A97D8DFE812F0A70209009B0209
:1013F000CB02DD02E3020B0009000B008BE700BF0C
:10140000426C02230132032A80F84D304264C0F05E
:10141000AF8200210422416480F84C201DE200BF0D
:10142000002825D42068514603F044FEC0054DD461
:101430002068514603F03EFE00074BD42068514619
:1014400003F038FE400569D42068514603F032FEAF
:10145000000671D50721802064E000BFA81904218F
:101460008160206804EB0901072281F84D204FE7D5
:101470000721042056E000BFA8192021816004EB59
:101480000906707E012809D100207076206840F29C
:101490000231A6F84C10514603F0C0F9B07E012885
:1014A0007FF439AFF07E00287FF435AF96F8260040
:1014B000032101281CBF0120F076206886F84D101A
:1014C000514603F0ABF90020706424E708214FF483
:1014D000807027E00621082024E000BF04EB090803
:1014E00020680021C8F84410514603F0E3FD40068F
:1014F00005D5012088F81900A8194021816098F8C5
:101500001B00002800F01E81002088F81B00A8198D
:10151000416821F48031416015E100BF09214FF499
:10152000806000BFAA19906004EB0902206882F86D
:101530004D10514603F072F92068514603F0BAFD90
:1015400001462068890537D4514603F0B3FDC00732
:101550003AD12068514603F0ADFD800600F17A8053
:101560002068514603F0A6FD800700F19B802068AB
:10157000514603F09FFD400600F1D480206851469B
:1015800003F098FDC0067FF5C6AE04EB090898F895
:101590002600002818BF022840F06481A0790028A6
:1015A0004FF00000C8F8440000F0618198F81B007B
:1015B000012800F05C8161E1514603F02FF9A81980
:1015C0004FF400718160A6E605EB06082020C8F8FC
:1015D000080004EB0906F07E012807D10020F07610
:1015E000D8F8040020F48030C8F80400A07930B1A5
:1015F000306BD8F810106FF3DF41401AB06301214F
:10160000002086F84D107064C8F8081096F826007F
:1016100003280AD8DFE800F0022C022C206851468B
:1016200003F0FCF81020C8F80800A079012830D198
:10163000B06B318DDDF8048008440138B0FBF1F067
:10164000C0073FF468AE96F83C0080F0010086F8D1
:101650003C0060E6A8192021816004EB0901887E26
:1016600001287FF458AE0120C87620680322FCE6EA
:10167000D8F80000514640F00050C8F800000120A2
:1016800086F84C0020460122FFF74CFDA079012886
:10169000CED096F83C00DDF8048080F0010086F89A
:1016A0003C0038E6A9190220886004EB090090F894
:1016B0004D20013A082A00F2CE80DFE802F0B7059B
:1016C00087A76DBD07C3070025E600BF426C022354
:1016D0000132032A80F84D304264C0F09380827E4C
:1016E000012A4FF00002426440F0B280A0F81B20B3
:1016F0004A6822F480324A60AAE000BF04EB090184
:10170000887E002200284FF0050081F84D0004BFBC
:101710000120487620684A64514603F07FF8A819F2
:1017200040214FE7A8194021816004EB0900817E28
:1017300000294FF0050180F84D1004BF00214164DD
:101740002068E5E5A81901218160206888F84D101E
:10175000514603F063F8DDF80480DCE5A8190821A0
:101760008160206804EB090106227EE604EB090093
:10177000417E002200294FF00401426480F84D10A0
:1017800004D1017E002904BF012141762068514621
:1017900003F044F8A81986E0C27E0223012A80F8EB
:1017A0004D3058D190F82620032A34D1826C013272
:1017B000032A8264C0F0B080426C00238364022A52
:1017C000C3769CBF0122027792E700BFC27E02234C
:1017D000012A80F84D303ED180F84C304A6842F4FE
:1017E00080324A60CA6842F04002CA60CA6822F089
:1017F0002002CA6090F8262042F00202022A10D08D
:1018000029E000BF90F8262005E000BF90F82620D0
:10181000022380F84D3042F00202022A80F84C3058
:1018200019D10A6863F39F720A6014E0022180F8FC
:101830004D1001210DE000BF022180F84D1005215F
:1018400007E000BF416C0222013180F84D20416465
:10185000042180F84C1090F84C2020465146FFF7A8
:1018600061FC58E5032809D10020C8F8440020682D
:10187000042188F84D10514602F0D0FF98F81B0063
:1018800001280DD1002088F81B00A819416821F417
:1018900080314160C16841F02001C16001E000BFBA
:1018A000A819DDF8048010218CE600BFA079F8B1FA
:1018B00004EB0900416C01310329416422D300216A
:1018C0004164042180F84C10204651460422FFF761
:1018D00029FC1EE004EB09012068092281F84D2053
:1018E000514602F09BFFA8194FF480616AE600BFE1
:1018F00004EB09012068072281F84D20514602F0CF
:101900008DFF06E0022180F84C10A85961F39F700A
:10191000A851A819802155E680F84C309BE700BFFC
:10192000C17E01294FF0020180F84D1093D10222AF
:1019300080F84C2091E700BF022180F84D1090F80C
:101940002610012201F0FE01022980F84C207FF4CC
:1019500084AFA179012933D0002945D190F83D10F9
:10196000DDF8048081F0010180F83D1075E700BFCB
:10197000022280F84C20086862F39F7008606CE7D0
:10198000C37E0222012B80F84D2080F84C207FF48A
:1019900064AF0022C2764868022220F4803048609A
:1019A0005BE700BF022280F84D2080F84C2054E70E
:1019B0000221052280F84D1080F84C204DE700BF31
:1019C000416B89B1028D11440139B1FBF2F1C907B4
:1019D00005D090F83D1081F0010180F83D10DDF850
:1019E0000480012239E700BFDDF8048035E700BF3D
:1019F00020684FF00071416103F064FBC00679D5A7
:101A00002568A86920F01000A861286A00F4F01188
:101A1000B1F5802F69D1C0F30A16002E65D000F011
:101A20000F08C8EB081004EB8000C16A00295CD0E5
:101A300000F11407D7E908023244824232D9042067
:101A400087F8380051E000BF0498C00702D0204654
:101A5000FFF7E2FA039840F00200039004980007B1
:101A60007FF520AC039840F00800039004984007ED
:101A700008D4204600F0E6F8049880063FF515AC3F
:101A8000FFF717BC607A022838D1049800F4C0210F
:101A90002068B1F5802F14BF0121022103F0EAFA7A
:101AA00033E000BF2846324603F010FBB869796A7C
:101AB0003044B8618819786205EB4810D0F81015E9
:101AC000BA8A964211D10022C1F6F87211400CD0A8
:101AD00000F5A0600168022262F39F71016097F82F
:101AE000280080F0010087F828002068816941F013
:101AF0001001816105B0BDE8F08F00BFE0790128D9
:101B000004BF4EF66020C6F80404204600F09EF89C
:101B1000049880063FF5C9ABFFF7CBBB002804BF94
:101B200001207047B0B582B00446056890F8D5032F
:101B300028B9002084F8D403204600F035F80320AB
:101B4000B5F1A04F84F8D50304BF0020A071206830
:101B500002F05AFD94E80F00257C009502F04AFC43
:101B600030B10120022184F8D51302B0B0BD00BF0E
:101B70002068012103F020FB30B10221012084F80C
:101B8000D51302B0B0BD00BF94E80F00257C0095CE
:101B900003F004F9012100281CBF0221012084F870
:101BA000D51302B0B0BD0000F0B587B000680026C4
:101BB000B0F1A04F0696CDE904660396029601D0D7
:101BC00007B0F0BD43F630070196C4F2020738684B
:101BD000002440F0010038603868C4F2020400F0CC
:101BE0000100019001984FF4007002ADCDE90206AA
:101BF000204629460496FFF72BF94FF4E050029057
:101C00000220CDE903060A200690204629460596C3
:101C1000FFF71EF97868002140F080007860019697
:101C20007869002240F480407861786900F480404F
:101C300001900198432000F00FFC432000F0FAFBD4
:101C400007B0F0BDD0F8DC0302F098B8D0F8DC03A0
:101C500002F098B8006803F08FBA0000D0F8DC03F7
:101C600002F034B890F8D413012904BF0220704761
:101C700010B50168012280F8D423044608460121EA
:101C800002F0CAFC206802F0EDFC002084F8D403C6
:101C900010BD000090F8D413012904BF0220704742
:101CA00010B50168012280F8D4230446084603F0E9
:101CB00037FC002084F8D40310BD0000002804BFC6
:101CC00001207047F0B581B0044690F83D0028B976
:101CD000002084F83C00204600F0A2F8242084F87C
:101CE0003D002068016821F001010160016841F4B4
:101CF00000410160016821F40041016000F06CFDC9
:101D0000636848F2A16CC0F2010C40F60011C0F209
:101D10003D0163453CBF48F28041C0F21E0188424C
:101D200002D2012001B0F0BD4DF68361C4F21B3137
:101D3000A0FB01122168970CD1F804E04FF49676CD
:101D40002EF03F0545EA92454D60774348F6381638
:101D50000D6AC0F24106A7FB067625F03F076345F2
:101D600038BF960C721C3A430A62CA6948F2A066F0
:101D70004CF6FF77C0F20106B34222EA07020BD805
:101D800001385B00B0FBF3F001306FF31F30042823
:101D900098BF04201BE000BFA768013857B119277E
:101DA0007B43B0FBF3F001306FF31F3070B100F5EF
:101DB000804007E003EB4303B0FBF3F001306FF327
:101DC0001F3018B100F5004001E000BF01201043B2
:101DD000C8610868D4E9072320F0C0001043184305
:101DE0000860886848F2FF3204F10C0790438CCFFA
:101DF00018431043A6698860C86820F0FF00384384
:101E00003043C860086840F00100086000202021CD
:101E1000206484F83D10206384F83E0001B0F0BDDA
:101E2000B0B586B045F200410068C4F2000100245C
:101E300088420594CDE903440294019402D006B08F
:101E4000B0BD00BF43F630050094C4F20205286817
:101E500040F002002860286800F00200009000981E
:101E60004FF410700190122002900120CDE903047C
:101E70000420059001F5D83001A9FEF7E9FF009490
:101E8000286940F400102861286900F400100090CF
:101E9000009806B0B0BD00002DE9F04186B00446C0
:101EA000006844F20C05816843F20448C4F200055E
:101EB000C4F20008059108F57F77291FB84208BFD2
:101EC00008F10401096808F5406604914168B842C8
:101ED0000391314604BF43F20441C4F200010A6891
:101EE0000292626842F40072B2F5007F4CD105990B
:101EF000890744BF03995FEA01617BD40498C00756
:101F000021D0029840061ED52068E16AB84208BF79
:101F100008F108052A6821F8022BE162618E013977
:101F20006186618E79B9B842304608BF4046016883
:101F300021F060010160608D28B9012084F8410022
:101F4000204600F0E5F80498400644BF02985FEA96
:101F500080606BD40598000744BF03985FEA8060F7
:101F600044D520684168B84221F0A001416008BF13
:101F70004646316821F0600131600021019180689E
:101F800001900198B6E000BF049A920744BF029AFC
:101F90005FEA02626AD40598C00719D00398400628
:101FA00016D52068E16AC26821F8022BE162618ED1
:101FB00001396186618E59B9416821F06001416043
:101FC000608D28B9012084F84100204600F0A0F877
:101FD0000598400644BF03985FEA806066D4049881
:101FE000000744BF02985FEA806077D406B0BDE87E
:101FF000F08100BF616A31F8022B6162C260618DBD
:1020000001396185618D00297FF478AF416821F045
:10201000A0014160608E00287FF470AF012084F839
:102020004100204600F074F868E700BF20683146A0
:10203000B84208BF41460A6822F060020A6041685F
:1020400021F0A001416000210191C16801918068E7
:1020500001900198012084F84100606C40F002007A
:102060006064204600F056F874E700BF626AB84228
:1020700032F8023B626208BF08F108052B60608DF0
:1020800001386085608D00287FF485AF086820F0F6
:10209000A0000860608E00287FF47DAF012084F8E6
:1020A0004100204600F034F875E700BF2068416821
:1020B000B84221F060014160304608BF40460168E7
:1020C00021F0A0010160012084F84100606C40F023
:1020D00002006064204600F01DF880E72068B842E6
:1020E00008BF4646316821F0A0013160416821F007
:1020F00060014160012084F84100606C40F00401FF
:102100002046616406B0BDE8F04100F003B800006D
:102110007047000070470000002804BF012070478E
:102120002DE9F041044690F8410050B9002084F8B0
:10213000400042F66D50C0F600006063204600F09B
:10214000A5F8022184F8411020686269C36940F64D
:10215000BF76B343022AC361016203D1216902221F
:1021600044E000BFD4E90206002521284FF0010019
:1021700038BF012500F0ACF92169B1F5007F07D126
:10218000E368626963B10723002E08BF06230BE0F2
:102190000522002E08BF04222A44D040626905E0CF
:1021A0000823002E08BF07232B44D84000EB8000F3
:1021B0004000B0FBF2F04CF6CD420530CCF6CC42FC
:1021C000A0FB02206FF0FF0202EB101212F1FE0FD3
:1021D00006D2606C40F0100060640120BDE8F08120
:1021E000020900F00803206842EA43121143016229
:1021F000C16940F6BF7CD4E9015821EA0C06E268C7
:1022000046EA0806A36916432E431E4346F40066B9
:10221000C661266A012E31D141F6996643F21C4E01
:10222000C0F60006C4F2000E66630EF579760EF570
:102230004067B04204BF43F21C47C4F2000739684C
:10224000B04221EA0C01396044F22001C4F20001DD
:102250004FF0020008BF0EF10401086038686FF407
:1022600000714FF400660D4208BF4FF41066304312
:1022700040EA08001043184380B238600020012172
:10228000606484F84110BDE8F08100002DE9F04160
:102290008AB0006843F60045C4F20005A8424FF03A
:1022A0000000CDE90800CDE90600CDE9040003D027
:1022B0000AB0BDE8F08100BF01200190C02002906B
:1022C0004FF0020801A8CDF80C8000F02DF900288D
:1022D00018BFFEF719FA002743F630000097C4F242
:1022E0000200016905AC41F4004101610169062663
:1022F00001F40041009100990097016841F001014B
:102300000160016801F001010091009900970168E6
:1023100041F0040101600068214600F004000090D3
:1023200000981020CDE9050805F5E230CDE90777E2
:102330000996FEF78DFD4FF4A450CDE9050805F58B
:10234000E6302146CDE907770996FEF781FD0AB010
:10235000BDE8F081704700007047000040F20000C7
:1023600040F6B411C2F20000C2F2000100780A681F
:10237000104408607047000080B543F60040C4F286
:102380000200016841F400710160016841F480615C
:102390000160016841F480710160032000F088F859
:1023A000002000F005F800F027F8002080BD0000B4
:1023B00070B540F20006C2F2000640F22801327801
:1023C000C2F200014FF47A730968B3FBF2F20446DB
:1023D000B1FBF2F1084600F0B1FC0F2C4FF0010503
:1023E00008D838B94FF0FF3021460022002500F010
:1023F00033F87460284670BD82B0002043F6400177
:102400000190C4F202014A6842F480424A604A687C
:1024100002F480420192019A0090086840F08050D6
:102420000860086800F0805000900098072002B013
:1024300000F03EB8002848BF704700F01F0101229D
:1024400002FA01F11C2202EAD0004EF20012CEF292
:10245000000281507047000010B54EF60C5CCEF2C1
:10246000000CDCF80030C3F3022E8EF00704042CBD
:1024700028BF0424BEF103034FF0FF3E0EFA04F41C
:1024800038BF0023A14399400EFA03F39A43114346
:1024900000F00F0200F160430901043A03F56443C0
:1024A0006244002848BF02F10C03197010BD0000FF
:1024B0004EF60C51CEF200010A684FF6FF031A40A7
:1024C00060F30A2242F0806040F0FD7008607047BF
:1024D00001281CBF0020704743F60400C4F202002C
:1024E0004168090242BF48F20000C0F2BB007047D9
:1024F00001680268490241F20021C0F27A0102F04B
:102500003F025CBF42F20041C0F2F401D0F88030DB
:10251000B1FBF2F1D0F88000C3F388125143C0F34D
:102520000270B1FBF0F07047F0B581B0044600686E
:1025300010F0050F2DD06827C4F2472743F6700628
:102540000020C4F202063860FEF760FD054600BFB9
:1025500056F8700C000105D5FEF758FD401B022807
:10256000F6D93FE0D4E90101090741EA8010706122
:1025700001203860FEF74AFD054600BF56F8700C92
:10258000000105D4FEF742FD401B0228F6D929E0E0
:10259000206880074FF0000058D543F67006C4F25B
:1025A0000206009056F8300C47F2000740F08050C9
:1025B00046F8300C56F8300CC4F2000700F080509A
:1025C00000900098386840F480703860FEF71EFD77
:1025D000054600BF3868C00508D4FEF717FD401B4C
:1025E0000228F7D9032001B0F0BD00BF306810F415
:1025F000407013D0E16801F4407188420ED0306819
:1026000040F64061C4F24721012220F440700A6084
:1026100000220A6030603068C00719D1E06856F8BF
:10262000681C4FF6FF4300F4407221F4F811C0F625
:10263000FF730340B2F5407F08BF194346F8681C9A
:1026400031686FF31F3008433060002001B0F0BDE7
:10265000FEF7DCFC054641F2883700BF3068800792
:10266000DCD4FEF7D3FC401BB8424FF00300F5D991
:10267000ECE70000002804BF012070472DE9F0417D
:1026800043F60808C4F202080446D8F8F8030D46D9
:1026900000F00700884207D288F8F853D8F8F8030A
:1026A00000F00700A84277D12068810717D54107BD
:1026B00005D5D8F8001041F4E051C8F80010010722
:1026C00005D5D8F8001041F46041C8F80010D8F8DA
:1026D0000010A26821F0F0011143C8F80010C007F3
:1026E00040D1D8F8F80300F00700A84207D988F8CD
:1026F000F853D8F8F80300F00700A8424CD120683E
:10270000410707D5D8F80010E26821F4E0511143E1
:10271000C8F80010000708D5D8F80000216920F497
:10272000604040EAC100C8F8000000F069F8D8F83D
:10273000001046F21822C1F30311C0F60002515CEA
:1027400040F2280220FA01F140F20400C2F2000037
:102750000068C2F200021160FFF72AFE0020BDE807
:10276000F08100BF6068811E022907D258F8081C5A
:1027700089015CBF0120BDE8F08111E0012807D18B
:1027800058F8081C89035CBF0120BDE8F08107E010
:1027900058F8081C890703D40120BDE8F08100BF68
:1027A000D8F8001021F003010843C8F80000FEF734
:1027B0002DFC064641F28837D8F80000616800F029
:1027C0000C00B0EB810F8CD0FEF720FC801BB842D0
:1027D000F2D90320BDE8F08140F2280043F6080159
:1027E000C2F20000C4F202010068096846F2282221
:1027F000C1F38221C0F60002515CC840704700005E
:1028000010B543F60404C4F20204606800F00C0141
:1028100042F200400829C0F2F40007D0042918BF92
:1028200010BD41F20020C0F27A0010BD216801F015
:102830003F02216823684902C3F3881106D4A1FB33
:1028400000010023FDF765FD07E000BF41F2002015
:10285000C0F27A004843B0FBF2F021680222C1F3D3
:10286000014102EB4101B0FBF1F010BD002804BFB3
:10287000012070472DE9F04182B00446007843F60C
:102880000006C007C4F202060CD0B06800F00C00CD
:10289000042840F081803068800303D560680028F8
:1028A00000F06881207880071BD5B06810F00C0F0D
:1028B00009D0B06800F00C00082840F087807068EC
:1028C000400200F183803068800703D5E06801286A
:1028D00040F050813068216920F0F80040EAC100E2
:1028E00030602078000713D4207840072AD4A569E7
:1028F000002D00F03A81B06800F00C00082840F08C
:10290000A580012D40F00E81012002B0BDE8F081CC
:102910006069002800F082800020C4F24720012175
:10292000C0F8801EFEF772FB054600BF706F80077F
:10293000DAD4FEF76BFB401B0228F7D9032002B064
:10294000BDE8F081306C5FEAC0080AD40020019035
:10295000306C40F080503064306C00F0805001905A
:10296000019847F20007C4F200073868C00547D451
:10297000386840F480703860FEF748FB054600BFB9
:102980003868C0053CD4FEF741FB401B0228F7D94C
:10299000032002B0BDE8F081B06800F00C00082808
:1029A00003D1706840023FF576AF61683068B1F5D9
:1029B000803F07D0B1F5A02F40F09A8040F48020EE
:1029C0003060306840F4803030609AE0E068002881
:1029D00040F20000C4F247205CD001210160FEF704
:1029E00015FB0546306880073FF574AFFEF70EFB18
:1029F000401B0228F6D9032002B0BDE8F08100BFD9
:102A0000A168306F012905D0052955D140F0040097
:102A10003067306F40F00100306756E00020C4F2AC
:102A200047200021C0F8801EFEF7F0FA054600BFDF
:102A3000706F80077FF558AFFEF7E8FA401B022859
:102A4000F6D9032002B0BDE8F08100BF0027C4F230
:102A5000472700203866FEF7D9FA022D05460DD12A
:102A60003068800140F18A80FEF7D0FA401B0228CE
:102A70004FF00300F4D902B0BDE8F0813068800166
:102A800073D5FEF7C3FA401B02284FF00300F5D9B7
:102A9000F1E700BF00210160FEF7B8FA054600BF6C
:102AA000306880077FF51DAFFEF7B0FA401B0228A3
:102AB0004FF00300F4D9DEE720F001003067306FFB
:102AC000002920F0040030677AD0FEF79FFA05460F
:102AD00041F28837306F800700F18480FEF796FA64
:102AE000401BB842F6D9032002B0BDE8F08100BF18
:102AF00020F4803030603068002920F4802030607D
:102B00007AD0FEF783FA0546306880033FF5CAAEF7
:102B1000FEF77CFA401B6428F6D9032002B0BDE81A
:102B2000F08100BF7068E16900F480028A4221D11F
:102B3000216A00F03F028A421CD147F6C071626AE6
:102B40000140B1EB821F15D1A16A4FF6FF73C90393
:102B5000994300F44032A1F580318A420AD1E16AFA
:102B600000F07060B0EB016F04D1002002B0BDE84E
:102B7000F08100BF012002B0BDE8F08104F11C0526
:102B80002FCD084340EA8210D9034FF6FF729143DC
:102B9000A1F5803140EA0560084370600120386685
:102BA000FEF734FA044600BF30688001DDD4FEF73A
:102BB0002DFA001B02284FF00300F5D95BE700BF98
:102BC000FEF724FA054641F2883700BF306F8007D0
:102BD00008D5FEF71BFA401BB8424FF00300F5D9A9
:102BE00049E700BFB8F1000F3FF581AE306C20F02F
:102BF000805030647BE600BFFEF708FA054600BF50
:102C0000306880037FF54EAEFEF700FA401B642863
:102C10004FF00300F4D92EE770B528B1416A29B10D
:102C200000210161142106E0012070BD4168B1F569
:102C3000827F02D01C21002242500026866290F83A
:102C4000511029B980F85060054600F03DF828463B
:102C5000022180F8511090E82E0002F482720C6874
:102C600003F4044324F040040C601A4405F40063A8
:102C700005691A4405F0020345691A4405F0010389
:102C80008569C4691A4405F400731A4404F03803D2
:102C9000046A1A4404F08003846A1A4304F400535B
:102CA0001A430A60436A042202EA154203F0100341
:102CB0001A444A60CA6922F40062CA610121466569
:102CC00080F85110304670BD80B586B043F20001E7
:102CD0000068C4F20101002288420592CDE9032276
:102CE0000292019202D006B080BD00BF43F63000D0
:102CF0000092C4F20200436943F480534361436984
:102D000003F480530093009B0092036843F0010397
:102D10000360006800F0010000900098E02001903E
:102D20000220CDE902020520059001F5504001A9DD
:102D30000492FEF78DF806B080BD0000411E002011
:102D4000B0EB116F1CBF012070474EF21002CEF2A3
:102D5000000251604EF62351CEF20001F0230B70B9
:102D60000721906011607047FEE7000010B584B045
:102D700001688A68039290F84120042A37D1039AA7
:102D8000D20717D04A68520614D5CA68C36A23F816
:102D9000022BC362428E013A4286428E52B94A6881
:102DA000044622F060024A60012180F84110FFF7DA
:102DB000D1FA20460399490619D501684A68920656
:102DC00015D54A68044622F060024A600022029249
:102DD000CA680292896802910299012180F8411023
:102DE000416C41F002014164FFF794F9204690F8EC
:102DF0004110032917D1039989070DD501684A6845
:102E0000120609D5426A32F8023BCB604262428D1B
:102E1000013A4285428DFAB10399090703D5016849
:102E20004A68920602D404B010BD00BF4A6822F07E
:102E3000A0024A6000220192896801910199012152
:102E400080F84110416C41F00401416404B0BDE8D8
:102E50001040FFF75FB900BF4A68044622F0A002A5
:102E60004A60012180F84110FFF776FA2046039965
:102E70000907D4D4D7E700000246002840F6000036
:102E8000C4F202004FF0010118BF0122FEF7B8B8EA
:102E900080B540F2081044F2B931C2F20000C0F629
:102EA0000001012200F080FE002818BFFDF72CFC75
:102EB00040F2081040F20801C2F20000C2F2000124
:102EC00001F02EFA002818BFFDF71EFC40F2081092
:102ED000C2F2000001F066FA002808BF80BDBDE81C
:102EE0008040FDF711BC000040F20810C2F2000063
:102EF00000F0C0BFFEE70000FEE7000040F2E04047
:102F0000C2F20000FEF762B970470000704700008F
:102F1000FFF724BA4EF68850CEF20000016841F463
:102F2000700101607047000090F88523120601D4FB
:102F300000225AE090F88923120601D4012254E0BD
:102F400090F88D23120601D402224EE090F89123CE
:102F5000120601D4032248E090F89523120601D40A
:102F6000042242E090F89923120601D405223CE0A5
:102F700090F89D23120601D4062236E090F8A12392
:102F8000120601D4072230E090F8A523120601D4DE
:102F900008222AE090F8A923120601D4092224E08D
:102FA00090F8AD23120601D40A221EE090F8B12356
:102FB000120601D40B2218E090F8B523120601D4B2
:102FC0000C2212E090F8B923120601D40D220CE075
:102FD00090F8BD23120601D40E2206E090F8C1231A
:102FE000120644BFFF2070470F2200F5617001F503
:102FF000004140F8221010467047000080B584B0B0
:10300000944601224FF0000ECDE90021194602231B
:10301000CDF80CE0CDF808C000F002FF002004B0AD
:1030200080BD000010B584B09E4690F81D339446D4
:10303000069A0024002B18BF22460123CDE9003157
:103040000392714600220223CDF808C000F0E8FE8A
:10305000002004B010BD0000B0B50446D0F87C03D9
:103060000722C06900F1400142F2A1102082002035
:10307000C4F812000720E082204600F0F7F900288B
:1030800018BFB0BDD4F8D42305462046022190478E
:103090002846B0BDB0B50446D0F87C03C569297890
:1030A00041B1204600F0BAF92978204600F07CFBB7
:1030B00000202870297B41B1204600F0AFF9297B20
:1030C000204600F071FB00202873697B41B1204647
:1030D00000F0A4F9697B204600F066FB00206873CD
:1030E000D4F87C03C06928B1FDF7ECF8D4F87C0370
:1030F0000021C1610020B0BD2DE9F04184B0022162
:10310000022201230446022600F0D0FA012806D844
:1031100007462046394601F011F928B1022630460B
:1031200004B0BDE8F08100BF01205021FDF7B6F8E2
:103130000546D4F87C03C56185B304F242381A20F1
:1031400017FB008191F90C00B0F1FF3F02DD002078
:1031500004E000BF0A31898868706981C1B22046E5
:10316000FFF7E2FE014694F81D036A7894F81C33D9
:103170006F890326CDE9000620462970029700F0EA
:103180006BFE29782046002200F016FE20460A2118
:103190000022002300F08AFA012805D902263046D1
:1031A00004B0BDE8F08100BF1A2110FB018090F946
:1031B0000C100A30B1F1FF3F8288C7BFA9732A8380
:1031C000E9736A8390F90A10B1F1FF3F04DD808949
:1031D000A973288304E000BF8089E973A97B688311
:1031E000C9B22046FFF7A0FEE97B68732046FFF7CF
:1031F0009BFE697BAA7B94F81C3394F81D732E8B7D
:1032000028734FF002082046CDE90078029600F0BE
:1032100023FE94F81D03297BEA7B94F81C336F8B03
:10322000CDE900082046029700F016FE697B0026D3
:103230002046002285F84C6000F0BEFD297B204628
:10324000002200F0B9FD304604B0BDE8F081000076
:103250007047000070B582B0D0F87C13CE6996F844
:103260004C10042910D8DFE801F0035B134307007A
:10327000002002B070BD00BF0021002400F0D4F88F
:10328000002808BF86F84C40012002B070BD00BF86
:1032900042F2A1110182002106F14004C0F812108F
:1032A0000721C18221460722054600F0DFF80128E8
:1032B000EAD0002848D1002086F84C00B06C96F87F
:1032C000441002799142DFD196F8461082799142FA
:1032D000DAD196F8451042799142D5D1216800683B
:1032E0008142D1D12846FFF7B3FF012002B070BD63
:1032F00096F84D1002292DD001294DD1726A358BD7
:10330000F169AA42737B88BF2A46012592B204461E
:103310000095FFF787FE0221204686F84D103BE01E
:1033200042F22102B16C02820022C0F81220072270
:10333000C28200F09BF80128A6D028B9022086F8A6
:103340004C00012002B070BD042086F84C00012022
:1033500002B070BD717B044600F0B4FC02280FD0AF
:103360000128204618D1726A318B8A420CD9F36940
:10337000521A1944F1610121726286F84D100BE076
:10338000012086F84D0006E00020706286F84D00AE
:10339000204600F041F82046D0F87C13CD6995F81E
:1033A0004E1004290ED003297FF46EAF296A6A8B70
:1033B0002B7BFFF723FE042085F84E00012002B08E
:1033C00070BD00BF297B044600F07CFC01287FF41F
:1033D0005BAF297B204600F067FCA96A091A0DD073
:1033E0006A8B90420AD12A6AA9621044286203209B
:1033F00085F84E00012002B070BD00BF002085F8A6
:103400004E00204600F004F8012002B070BD00001C
:1034100070470000002070477047000080B500F042
:10342000FFFB002080BD00008278012A05D14FF407
:103430008172818200210261C1820021002200F09C
:1034400015B8000080B584B0944601224FF0000EFC
:10345000CDE9002119460023CDF80CE0CDF808C0D5
:1034600000F0DEFC002004B080BD0000B0B582B0EA
:103470008378022B0CD0012B40F08B8081608281FD
:1034800001460120022208768A7002B0B0BD00BF5A
:10349000017E01390A2900F27C800FF20602DFE882
:1034A00001F007512D390F5B6D4587217B0000BF6F
:1034B000427900F11001044600F0E4F8022067E0D0
:1034C0008168828943794FF0010C0446CDF800C031
:1034D00000F0BEF8D4F8C4130120E1810621217662
:1034E00002B0B0BD4179044600F0ECFB012827D0C2
:1034F00004282FD0022817D04BE000BFD0F8C443D7
:10350000816882890379C4810446FFF79BFF042008
:103510003EE000BF0179044600F0D4FB052859D0F5
:10352000042817D0012834D1092031E0017904465C
:1035300000F0C8FB05284DD004280BD0012828D165
:10354000002148E04179044600F0BCFB042818BF84
:10355000022859D10B201BE04179044600F0B2FB50
:10356000421E042A4FF0010065D80321DFE802F073
:10357000045C635E330000BF072009E0037900218B
:1035800000220446FFF75EFFD4F8C403E081082060
:103590002076012002B0B0BD417E0131CAB2022ABC
:1035A00041761FD8014601200876887002B0B0BD70
:1035B00043794FF0010C002100220446CDF800C0F1
:1035C00000F046F8D4F8C4130120E1810A212176E5
:1035D00002B0B0BD03210120A07000202076084673
:1035E00002B0B0BDD0F8D4230621044690476179DB
:1035F00000252046657600F0D7F82179204600F0B6
:10360000D3F8257014E000BF0128C2D1E28A94F9F2
:103610001010204692B1B1F1FF3FD4BF0321052124
:103620000176012002B0B0BD0520B1E70B20207665
:103630000120A070022002B0B0BD00BFB1F1FF3F79
:10364000CCBF072109210176012002B0B0BD0000E6
:1036500010B584B09E4690F81D339446069A002417
:10366000002B18BF22460123CDE900310392714699
:1036700000220023CDF808C000F0D2FB002004B0E7
:1036800010BD000080B584B08C4600210823009155
:10369000CDE90231114600220023CDF804C000F02C
:1036A000BFFB002004B080BDFDF78ABBFF2911D10C
:1036B000FF2A21D1FF2B5FD090F8491399425BD0AC
:1036C00090F863134FF0FF30994208BF0120C0B259
:1036D000704700BF90F847C3FF2A1DD1FF2B2DD1A3
:1036E0008C4549D090F861234FF0FF308A4208BFE3
:1036F0000120C0B2704700BF90F84813FF2B29D1BA
:10370000914239D090F862134FF0FF30914208BFD8
:103710000120C0B2704700BFFF2B23D18C4503D1DD
:1037200090F84833934227D090F861338B4237D1D9
:1037300090F8620390422FD032E000BF8C4503D155
:1037400090F849239A4217D090F861238A421FD0FB
:1037500026E000BF914217D190F8491399420BD04F
:1037600012E000BF8C450BD190F848C3944507D1B7
:1037700090F849C39C4503D10020C0B2704700BFF8
:1037800090F861C38C450BD190F86213914207D138
:1037900090F86303984203D10120C0B2704700BF84
:1037A000FF20C0B2704700000F2907D800EB81004E
:1037B000D0F884136FF3DF31C0F884130020704712
:1037C000B1F5807F82BF0320C0B270472DE9F04F72
:1037D00087B00D46817800F11C04012907D14FF410
:1037E000D06101824FF40071C0F81210C5822146E9
:1037F0002A460646FFF73AFE20B107B0BDE8F04F73
:10380000C0B27047307FB44609281CBF0920207021
:103810009CF81D20BCF81EB009208CF838038CF8E9
:1038200039239CF82010BBF5807F28BF4FF4807BA4
:10383000DCF821000A2DACF83AB38CF83C13CCF834
:103840003D03C0F0E980BBF10A0F4FF000004FF0DC
:1038500000050191C0F0D3800CF2423002904FF08D
:10386000090E00220020092623781C4467781E4494
:10387000042F40F0BD802378092B18BF84F800E0A6
:1038800002991A23039502FB03155A4301F802E03B
:1038900062786A70A278AA70E278EA702779BA46EC
:1038A000022F28BF4FF0020A85F804A06279002F8A
:1038B0006A71A379AB71E179E9710491217A297276
:1038C00000F0928082F0010103F0FE0282F0020219
:1038D0001143B1FA81F14909069105F10A014FF04E
:1038E000000E4FF00008059109E000BF032008F129
:1038F00001085FFA88FED6454E4480F07580B2B26A
:103900005A4580F08F8094F800904C446278052AE4
:10391000EFD1069840B10499207841B909220928CD
:103920004FF0090001D102E00722104622700599EC
:103930009CF81D3301F83E00607801EBCE01487021
:10394000A0788870E778CF70A2888A80A2F20120E0
:10395000A57910F5007F4FF0000038BF0320022B3F
:103960008D7117D0012B0BD0002BBFD107F00303B3
:10397000DFE803F00C023402A5F111011FE000BFE3
:1039800007F00303DFE803F002160220402A88BF95
:103990000320ACE707F00303032B07D0002B7FF4D1
:1039A000A5AFB2F1080018BF0320A0E7082A88BF1E
:1039B00003200EE0A5F11101402A88BF032011F178
:1039C000100F38BF032092E70021B1EB922F18BFF0
:1039D0000320002D08BF032089E700BFB2F5007F58
:1039E00088BF032083E700BF039D4FF0090E013518
:1039F000EAB2012A03D8B1B25945FFF435AF019AB2
:103A0000E9B2022A28BF02228A4288BF032007B0F7
:103A1000BDE8F04FC0B27047002007B0BDE8F04FDE
:103A2000C0B27047032007B0BDE8F04FC0B2704786
:103A3000B1F5007F84BF03207047B0B50C46817894
:103A4000012900F58E7107D14FF4D06202824FF444
:103A50008072C0F81220C48222460546FFF706FD98
:103A600000B1B0BDD5F81C01B5F82121C5F8260379
:103A700095F82001A5F82B2395F81D2385F82A0336
:103A800095F823012946022A85F82D030CD208381F
:103A90004FEAF00008280AD2C0B28B2222FA00F0C6
:103AA000C00704D006E000BF06D1082802D00820D5
:103AB00081F82D03002000E00320092C38BFB0BDA1
:103AC000B1F8242191F82A31A1F82E23D1F826212A
:103AD00081F83433C1F83023B1F82B2191F82D311E
:103AE000A1F8352381F83733B0BD000070B5054625
:103AF0004FF00300D2B11E46B3F5007F88BF70BD02
:103B0000A8781446012805F58E7209D101F5407098
:103B10004FF4D061688240F209402982A882EE8287
:103B2000284611463246FFF7A1FC08B170BD00BF20
:103B300095F81D0103281CBF002070BD95F81C01DD
:103B40000238B04288BF304680B2E8B105F58F71C7
:103B5000002200BF931C8E5C9BB28342267017D25A
:103B6000CE5C131D9BB28342667015D2CE5C931D52
:103B70009BB28342A67013D2CB5C083292B2E37040
:103B8000824204F10404E5D30020207070BD00BF20
:103B900001340020207070BD02340020207070BD00
:103BA00003340020207070BD002804BF022070473D
:103BB000F0B581B004460D4680F8CC2300F55F7067
:103BC0004821FCF740FC00274FF48071012027704A
:103BD000A4F80110C4F8C47320834020A07104F13C
:103BE0001C00C4F81C134FF4407104F22636FCF795
:103BF0002AFC30465021FCF704FC204684F823734D
:103C000084F8207384F82173002D84F8227318BF80
:103C1000C4F8D45300F06AF8002001B0F0BD0000F1
:103C200080B5D0F8D003FDF715FA40F20022022348
:103C3000C100C0F20122042838BF22FA01F3D8B231
:103C400080BD00000146012081F8200300220020F1
:103C500081F8212381F822237047000010B5044623
:103C6000012084F82103002084F8200384F8230332
:103C7000204600F0C3F821792046FFF795FD6179D1
:103C80002046FFF791FD002010BD000080B590F8A0
:103C9000CC03012802D10846FFF7EEF8C820FDF753
:103CA0008FF8002080BD0000D0F8D003FDF7CCB91C
:103CB00080B5D0F8D003FDF7BBF9032828BF012059
:103CC000C0B280BDD0F8D003FDF7B6B9D0F8C413A8
:103CD0000131C0F8C41301780B2918BF7047D0F820
:103CE0007C1309B1896908477047000090F8CC132C
:103CF000012927D110B540F2E041C2F20001C1F81C
:103D0000DC030446C0F8D0134FF0A0400860082040
:103D1000A1F805000120C8710220A1F80900084699
:103D2000FDF7FCFE002818BFFCF7EEFC40F2E04077
:103D3000C2F20000FDF778F90146204600F038F89D
:103D4000BDE810400020704710B584B0DDE906CE14
:103D5000089CD0F8D003CDE900CE0294FDF78EF98F
:103D600040F200220223C100C0F20122042838BF21
:103D700022FA01F3D8B204B010BD0000002180F88F
:103D800023137047012180F82313704780B5D0F8C2
:103D9000D003FDF75FFF40F200220223C100C0F212
:103DA0000122042838BF22FA01F3D8B280BD0000F6
:103DB000C0F8C41370470000D0F8D003C1EB011164
:103DC00000EB8100C17D143000290CBF80F8292050
:103DD00080F828200020704780B5D0F8D003FDF788
:103DE00041FF40F200220223C100C0F20122042858
:103DF00038BF22FA01F3D8B280BD000080B5D0F8F8
:103E0000D003FDF747FF40F200220223C100C0F2B9
:103E10000122042838BF22FA01F3D8B280BD000085
:103E2000B0B584B0DDE908CEDDE90A45D0F8D003AD
:103E3000CDE900CECDE90245FDF776F940F200224A
:103E40000223C100C0F20122042838BF22FA01F384
:103E5000D8B204B0B0BD000010B584B0DDE906CE24
:103E6000089CCDE900CE0294FFF76EFF002004B05D
:103E700010BD0000F0B585B0044602208DF8130097
:103E800094F82103012804BF0320207020780B2818
:103E900000F21381DFE810F00C00F600BE007C0099
:103EA00011012E00660002010A01320114012200F4
:103EB00094F82003002800F0008101202070C82021
:103EC000FFF7F2FB2046FFF761FF002084F81C0398
:103ED000C4F8C803002005B0F0BD00BFD4F87C03CF
:103EE000002800F0EA80416920468847002005B09C
:103EF000F0BD00BF6078072800F2EE81DFE810F027
:103F00000800A001540182014801BE01CC018C01CE
:103F100020460821FFF78CFD032800F0D3810028FC
:103F200040F0DA8194F82D0394F81D2301252179BE
:103F300094F81C33A071657000270092029020460F
:103F400080220197FFF788FF94F81D0394F81C3333
:103F50006179A679CDE90007204600220296FFF795
:103F60007BFFBAE1D4F87C03002800F0F0800169FF
:103F7000204688478DF813009DF81300002800F0B4
:103F8000FB809DF81300022840F09780DFE000BF1F
:103F9000002604F56170402184F821634025FCF778
:103FA00052FA4FF4807101202670A4F80110C4F871
:103FB000C463208304F11C00C4F81C134FF4407147
:103FC000A57104F22635FCF73EFA28465021FCF78D
:103FD00018FAD4F87C0320B1C16820468847C4F899
:103FE0007C63D4F8D42312B120460521904794F87D
:103FF0002203012840F09880002084F82203204604
:10400000FFF7EAFE20460121FFF740FE002005B041
:10401000F0BD00BFD4F8D42312B12046042190474C
:104020006420FFF741FB2046FFF742FE84F81D03A2
:1040300005202070204600210025FEF775FF6071E5
:1040400020468021FEF770FF014694F81D0394F886
:104050001C33A6792171CDE9000520468022029605
:10406000FFF7FAFE94F81D0394F81C336179A679E2
:10407000CDE90005204600220296FFF7EDFE002064
:1040800005B0F0BD94F82303012853D1002084F833
:104090001F0302202070002005B0F0BDD4F8D42307
:1040A0005AB120460121904725E100BF94F83D1305
:1040B000204600F05BF900284ED0002005B0F0BD8E
:1040C000D4F880030028F8D0D4F8780394F8472374
:1040D0000179914218BF0020C4F87C03B8B381680D
:1040E0002046884798BB06202070D4F8D423204669
:1040F00003219047002005B0F0BD00BF94F83F03B6
:1041000080060CD52046012100F03EF98DF8130001
:104110009DF8130018B19DF813000328CDD10A2093
:104120002070002005B0F0BD2046FFF755FE0020AE
:1041300005B0F0BDD4F8C803B0F57A7F12D994F871
:104140001F030130C1B2042984F81F031AD30D20C4
:104150002070002005B0F0BD09202070002005B0BF
:10416000F0BD00BF0A30C4F8C8030A20FFF79CFA6C
:10417000002005B0F0BD00BF0B202070002005B06E
:10418000F0BD00BF00202070002005B0F0BD00BFD2
:10419000B4F83A132046FFF713FB03285AD000283F
:1041A00040F09A8005208AE020460121012500F098
:1041B000CFF8032800F08080002840F08E80022095
:1041C000FFF772FA94F81D23A379012503202179C2
:1041D00084F81C53607000260092029320468022CF
:1041E00001230196FFF738FE94F81D0394F81C3361
:1041F0006179A779CDE90006204600220297FFF7F2
:104200002BFE6AE020460921FFF7DAFA032821D0C5
:10421000002861D1042052E094F83613002949D0D7
:1042200004F58E722046FF23FFF760FC002801464C
:1042300018BF0121033818BF012001EA00054CE036
:1042400020461221FFF7F4FB032803D0002843D1B6
:10425000022034E094F81E030130C1B2042984F82E
:104260001E0337D261792046FFF79EFA2179204656
:10427000FFF79AFA002060702DE000BF94F8341325
:1042800041B104F58E722046FF23FFF72FFC03286F
:1042900000D008BB062012E094F8351341B104F5B4
:1042A0008E722046FF23FFF721FC032800D098B927
:1042B000072004E0002510E00D2020700020607031
:1042C0000AE000BF94F81E030130C1B2042984F84B
:1042D0001E031BD30D20207001258DF813509DF86F
:1042E000130000287FF4E9AE94F837030021012879
:1042F00084F8241304D108202070002005B0F0BDFC
:1043000007202070002005B0F0BD00BF6179204675
:10431000FFF74AFA21792046FFF746FA0020DAE74C
:1043200011B1D0F880230AB1022070470122C0F8F1
:104330008023C0F8781300207047000090F83C23D9
:104340008A4292BF022080F82413002070470000A8
:104350008278012A05D14FF4A062418200210282B5
:10436000416100210022FFF781B800008278012A14
:1043700005D14FF410624182002102824161002187
:104380000022FFF773B800008278012A05D14FF4AC
:104390004072418200210282416100210022FFF728
:1043A00065B8000010B50446FFF716FD2046012150
:1043B000FFF76CFC002010BD052913D0042909D09B
:1043C000022918BF7047022040F20411C2F2000116
:1043D00008707047012040F20411C2F20001087019
:1043E000704700BF032040F20411C2F200010870C0
:1043F0007047000082B002F47F42B2F5807F40F047
:104400007F80826B4FF6BF7322F480328263C26872
:10441000CFF6BD731A40C260029BC268DBB222F4C1
:104420004012012BC26003D1C26842F48012C26004
:1044300000220092009A01320092009AB2F1706F4D
:1044400000F2BE800269002A21D4009A0132009253
:10445000009AB2F1706F00F2B3800269002A16D49C
:10446000009A01320092009AB2F1706F00F2A880B7
:104470000269002A0BD4009A01320092009AB2F12C
:10448000706F00F29D800269B2F1FF3FD2DC002222
:104490000092026942F001020261009A0132009228
:1044A000009AB2F1706F00F28B800269D2071ED0C1
:1044B000009A01320092009AB2F1706F00F280808F
:1044C0000269D20713D0009A01320092009AB2F129
:1044D000706F75D80269D20709D0009A0132009234
:1044E000009AB2F1706F6BD80269D207D5D14FF044
:1044F000000C01F47F01B1F5803F40F0818077E04E
:10450000C26842F04002C26000220192019A013268
:104510000192019AB2F1706F5AD80269002A1ED432
:10452000019A01320192019AB2F1706F50D802697A
:10453000002A14D4019A01320192019AB2F1706FEB
:1045400046D80269002A0AD4019A01320192019ADE
:10455000B2F1706F3CD80269B2F1FF3FD6DC0022A5
:104560000192026942F001020261019A0132019254
:10457000019AB2F1706F2BD80269D2071DD0019A4F
:1045800001320192019AB2F1706F21D80269D2070B
:1045900013D0019A01320192019AB2F1706F17D8CB
:1045A0000269D20709D0019A01320192019AB2F14F
:1045B000706F0DD80269D207D7D14FF0000C09E017
:1045C0004FF0030C01F47F01B1F5803F18D10FE0EB
:1045D0004FF0030C826B13F47F4F14BF22F4803230
:1045E00042F48032826301F47F01B1F5803F07D14C
:1045F000816841F006018160816841F0200181609D
:10460000604602B0704700000146806820F0010259
:1046100000208A607047000081B000220092D0F82C
:10462000402401290092009A22F02E020092009B61
:10463000009A08BF13F480530CD039B912F480519A
:1046400004D0009921F48051C0F84014002001B03A
:10465000704700BF42F48051C0F840140098002019
:1046600001B070470146806840F0010200208A6076
:104670007047000081B00021009100990131009144
:104680000099B1F1706F51D8016900291ED40099C9
:10469000013100910099B1F1706F47D8016900298B
:1046A00014D40099013100910099B1F1706F3DD897
:1046B000016900290AD40099013100910099B1F1F2
:1046C000706F33D80169B1F1FF3FD6DC0021009152
:1046D000102101610099013100910099B1F1706FD1
:1046E00024D80169C9061DD50099013100910099AE
:1046F000B1F1706F1AD80169C90613D5009901315B
:1047000000910099B1F1706F10D80169C90609D5FF
:104710000099013100910099B1F1706F06D80169DB
:10472000C906D7D4002001B0704700BF032001B0F4
:104730007047000081B000220092009A013200927E
:10474000009AB2F1706F51D80269002A1ED4009A03
:1047500001320092009AB2F1706F47D80269002AC4
:1047600014D4009A01320092009AB2F1706F3DD8D1
:104770000269002A0AD4009A01320092009AB2F12A
:10478000706F33D80269B2F1FF3FD6DC8901002295
:104790002031009201610099013100910099B1F13D
:1047A000706F23D8016989061DD5009901310091E8
:1047B0000099B1F1706F19D80169890613D5009974
:1047C000013100910099B1F1706F0FD8016989062C
:1047D00009D50099013100910099B1F1706F05D8A8
:1047E00001698906D7D4002001B07047032001B0C9
:1047F00070470000D0F8080480B2704781B00021F3
:104800000091D0F8400400900098C0F3414001B0FE
:1048100070470000406900F00100704780B581B02A
:104820000022009200EB4111D1F800C5D1F800E55B
:10483000D1F8042583689B060FD5002A0DD4BEF15C
:10484000FF3F03DD002001B080BD00BF022242EA2D
:104850009C4202F00302032AF4D001F5A0610A6829
:104860005FEA4C3342F080420A603BD48268920691
:1048700078D4C26A086812F47F0F74D120F0004027
:104880000860086840F0004008600098013000901F
:104890000098B0F57A7FD5D80868B0F1FF3FD1DC39
:1048A0000098013000900098B0F57A7FCAD8086867
:1048B000B0F1FF3FC6DC0098013000900098B0F5E1
:1048C0007A7FBFD80868B0F1FF3FBBDC00980130A9
:1048D00000900098B0F57A7FB4D80868B0F1FF3F37
:1048E000D3DDAFE7D0F81024086812F47F0F3AD177
:1048F00020F000400860086840F000400860009820
:10490000013000900098B0F57A7F9BD80868B0F12C
:10491000FF3F97DC0098013000900098B0F57A7F57
:104920003FF690AF0868B0F1FF3F3FF78BAF0098BC
:10493000013000900098B0F57A7F3FF683AF0868A9
:10494000B0F1FF3F3FF77EAF009801300090009834
:10495000B0F57A7F3FF676AF0868B0F1FF3FCEDD65
:1049600070E700BF086840F000400860002001B018
:1049700080BD00002DE9F04381B0DDE908840A9E86
:1049800000EB411707F5A06E4FF0FF35032C4FF0F9
:104990000109C7F8085500F27D80DFE804F0031331
:1049A000031F00BF40F29D4C754657B2002F45F8DB
:1049B0000CCF1CD40027C4F20407B8421DD14FF01D
:1049C000600C16E040F2252C754657B2B7F1FF3F58
:1049D00045F80CCF11DC4FF4C07C0AE040F29D6C2E
:1049E000754657B2B7F1FF3F45F80CCF05DC4FF4E1
:1049F000807C2F6847EA0C072F604FF0000C0025E1
:104A0000CEF80450DEF80C7001F00F0147F00207F9
:104A1000CEF80C70D0F8187409FA01F13943C0F8D7
:104A20001814816903F07F0341F0007181610095E2
:104A3000D0F8400402F0800100900098090200F4D0
:104A4000C02062F3CE2104F0030541EA8351B0F5A2
:104A5000802F4FF480106FF3DF2641EA854118BFA5
:104A60004FF4901031444FF48012B8F1020F18BF88
:104A70001046084404F0FD010129CEF8000005D1DC
:104A8000DEF8000040F00050CEF80000604601B0B3
:104A9000BDE8F0834FF0010CB1E70000D0F814043A
:104AA00080B27047F0B581B00023C4F2040391F8DE
:104AB00001C0984222D091F806E0BEF1010F07D163
:104AC000CE78002E46D08C8A0125CC6175E000BFDF
:104AD0000C6A002C4ED08B8AE518013DB5FBF3F52E
:104AE000ABB2B3F5807F88BF4FF48075CE78002ECF
:104AF00044D08B8AACB25C43CC615EE0012A11D118
:104B00008B7C43F00203022BD5D18B79002BD2D1C1
:104B100000EB4C13D3F80C6526F07006C3F80C6557
:104B2000C9E700BF0E79002EC5D14E79012EC2D142
:104B3000002103EB4C10C8F20801C0F81015D0F8A2
:104B40000015022262F39F71C0F80015002001B029
:104B5000F0BD00BF8B7C012B12D10C6ABD2C1FD382
:104B6000CB688C8A013B012BCC610C6222D80223DA
:104B70001DE000BF0125CE78002EBAD1CC611BE02C
:104B80000C6A012A08D18B8A9C4205D9CB61012588
:104B900000261C4611E000BFCC6101250CE000BFDF
:104BA000CB68CC61013B022B34BF03230423CB60D1
:104BB000012501E00125CD6000268B7D6FF3DF44E8
:104BC00065F3DC4403F0030344EA437300EB4C1544
:104BD000C5F8103505F5A064002A1CBF8B69636118
:104BE000D0F808342568BEF1010F25F00055256086
:104BF0004FF00055276825EA437343EA0703236013
:104C000016D10B7C4F7CCD7943EAC71303F10043E7
:104C10006360E368012D43F06003E36008BF002E8A
:104C200036D08B7C43F00207032F3ED002E000BF5A
:104C3000002363602368002E0093009B23F08043D1
:104C4000009355D1009B002A23F400430093009B5E
:104C500043F000430093009B23607FF477AF0A6A20
:104C6000002A3FF473AFCB79002B7FF46FAF8B7CBE
:104C7000032B58D8DFE803F0024A024AC76AD31C64
:104C8000C3F38F03BFB2BB424DD9202348E000BF1E
:104C9000636843F480336360E36843F04003E36098
:104CA0008B7C43F00207032FC4D1012D08BF012ED6
:104CB00014D0012BBED1AEB9CB68013B042B05D279
:104CC00032A757F8233067683B436360236800933B
:104CD000009B23F080430093B4E700BF606840F47A
:104CE0008030606020680090009820F08040009044
:104CF000009840F400400090009840F00040009080
:104D000000982060002001B0F0BD00BFD0F8107402
:104D1000D31CC3F38F03BFB2BB4204D94FF08063EF
:104D200087693B43836192B2002A3FF40FAFD61CE0
:104D30004FF0FF33896903EB960300F580504FEA8B
:104D40000C32032BC6F381030ED3B70827F00305FB
:104D50000F68043D17504F6817508F681750CF6881
:104D600001F110011750F3D1002B3FF4EFAE0F68A3
:104D7000012B87503FF4EAAE4F68022B87501CBFCF
:104D800089688150002001B0F0BD00BF00800000A4
:104D90000E0000000040000000C0000070B582B0AE
:104DA00086460020CEF8000EDEF8380040F40010F1
:104DB000CEF83800DEF8380020F40020CEF83800B5
:104DC000DEF8380020F48020CEF83800DEF80C0041
:104DD000400609D401F07F42DEF80004B2F1807F82
:104DE00004D140F0040003E0DEF8000420F00400E9
:104DF000CEF800040B0A00200090009801300090CB
:104E00000098B0F1706F59D8DEF81000002821D456
:104E10000098013000900098B0F1706F4ED8DEF825
:104E20001000002816D40098013000900098B0F1CE
:104E3000706F43D8DEF8100000280BD400980130C2
:104E400000900098B0F1706F38D8DEF81000B0F123
:104E5000FF3FD2DC002000904FF48460CEF81000B9
:104E60000098013000900098B0F1706F26D8DEF8FD
:104E70001000800620D50098013000900098B0F115
:104E8000706F1BD8DEF81000800615D50098013031
:104E900000900098B0F1706F10D8DEF81000800616
:104EA0000AD50098013000900098B0F1706F05D8D5
:104EB000DEF810008006D3D4002000E0012000229C
:104EC0000192019A01320192019AB2F1706F57D8A2
:104ED000DEF81020002A21D4019A01320192019AB1
:104EE000B2F1706F4CD8DEF81020002A16D4019A67
:104EF00001320192019AB2F1706F41D8DEF81020B0
:104F0000002A0BD4019A01320192019AB2F1706F1A
:104F100036D8DEF81020B2F1FF3FD2DC0022019239
:104F20001022CEF81020019A01320192019AB2F1BA
:104F3000706F25D8DEF81020D20622D5019A0132F2
:104F40000192019AB2F1706F1AD8DEF81020D206E1
:104F500017D5019A01320192019AB2F1706F0FD800
:104F6000DEF81020D2060CD5019A01320192019A86
:104F7000B2F1706F04D8DEF81020D206D3D400E06E
:104F80000120DCB2C4B303F0030C0023042C4FF067
:104F9000000218D3A4EB0C040EF5AC654FF0FF36FD
:104FA000043245F8586C45F8543C45F8386C45F8DF
:104FB000343C45F8186C45F8143CAE60EB60944204
:104FC00005F18005ECD1BCF1000F15D00EF5A06302
:104FD00003EB42124FF0FF340023BCF1010F946049
:104FE000D36009D0BCF1020F9462D36204D04FF0B9
:104FF000FF3393640023D3640022C4F2040200232D
:10500000CEF818304FF0FF339645CEF814301FD04D
:105010008022CEF824208022C0F26002CEF8282020
:10502000E022C0F24002CEF8002111F47F0F05D13A
:10503000DEF8181041F01001CEF81810DEF8181044
:105040000822CAF220321143CEF8181002B070BD07
:105050004FF40073536240F20023C0F200139362D6
:1050600040F20033C0F2E003C2F8003111F47F0FC8
:10507000E4D1DDE7D0F8002401F0030322F00302BD
:10508000C0F80024D0F80024012942EA0302C0F845
:10509000002409D002291CBF0120704741F2707121
:1050A000C0F80414002070474BF68031C0F8041497
:1050B0000020704700EB4110D0F80815D0F80C051F
:1050C00008407047416980690840704710B59308EF
:1050D00002F0030E2CD05A1E032A03F0030C0FD348
:1050E00023F003034FF480528458043B0C6084582F
:1050F0004C6084588C608458CC6001F11001F3D16D
:10510000BCF1000F14D04FF4805284580B46BCF110
:10511000010F43F8044B05D11946BEF1000F0AD127
:105120001EE000BF8258BCF1020F4A601AD108315C
:10513000BEF1000F14D04FF4805280580A46BEF1E1
:10514000010F02F8010B04BF104610BD020ABEF1A8
:10515000020F4A7004BF881C10BD000C8870033118
:10516000084610BD4FF4805282588A600C31BEF15F
:10517000000FE0D1F4E7000010B582B00446002033
:105180000190D4F840040190019820F02E00019085
:10519000019840F48070C4F840046420FBF710FECE
:1051A000019820F48070C4F840040A20FBF708FE40
:1051B000002002B010BD0000B0B50446C068002950
:1051C00020F0C040E06000F09980012940F0B080FC
:1051D000E0680A2540F00050E0600A20FBF7F0FD8F
:1051E00054F8140FC00740F09C800A20FBF7E8FD3C
:1051F0002068C00740F09E800A20FBF7E1FD206890
:10520000C00740F0A5800A20FBF7DAFD2068C00740
:1052100040F0AC800A20FBF7D3FD2068C00740F0C7
:10522000B3800A20FBF7CCFD2068C00740F0BA80AD
:105230000A20FBF7C5FD2068C00740F0C1800A20A6
:10524000FBF7BEFD2068C00740F0C8800A20FBF7CE
:10525000B7FD2068C00740F0CF800A20FBF7B0FD03
:105260002068C00740F0D6800A20FBF7A9FD20681F
:10527000C00740F0DD800A20FBF7A2FD2068C007D0
:1052800040F0E4800A20FBF79BFD2068C00740F057
:10529000EB800A20FBF794FD2068C00740F0F28005
:1052A0000A20FBF78DFD2068C00740F0F9800A2036
:1052B000FBF786FD2068C00740F000810A20FBF75D
:1052C0007FFD2068C00740F007810A20FBF778FDCA
:1052D0002068C00740F00E810A20FBF771FD2068AE
:1052E000C00740F016810A20FBF76AFD2068C82538
:1052F000A5F1C800B0FA80F04009B0BDE0680A2509
:1053000040F08040E0600A20FBF75AFD54F8140F8B
:10531000C00706D00A20FBF753FD2068C00711D153
:105320001425A5F1C800B0FA80F04009B0BD00BF57
:105330000120B0BD1425A5F1C800B0FA80F04009E5
:10534000B0BD00BF0A20FBF73BFD2068C00707D1B6
:105350001E25A5F1C800B0FA80F04009B0BD00BF1D
:105360000A20FBF72DFD2068C00707D12825A5F1ED
:10537000C800B0FA80F04009B0BD00BF0A20FBF7BA
:105380001FFD2068C00707D13225A5F1C800B0FA7B
:1053900080F04009B0BD00BF0A20FBF711FD206876
:1053A000C00707D13C25A5F1C800B0FA80F040093C
:1053B000B0BD00BF0A20FBF703FD2068C00707D17E
:1053C0004625A5F1C800B0FA80F04009B0BD00BF85
:1053D0000A20FBF7F5FC2068C00707D15025A5F18E
:1053E000C800B0FA80F04009B0BD00BF0A20FBF74A
:1053F000E7FC2068C00707D15A25A5F1C800B0FA1C
:1054000080F04009B0BD00BF0A20FBF7D9FC20683E
:10541000C00707D16425A5F1C800B0FA80F04009A3
:10542000B0BD00BF0A20FBF7CBFC2068C00707D146
:105430006E25A5F1C800B0FA80F04009B0BD00BFEC
:105440000A20FBF7BDFC2068C00707D17825A5F12D
:10545000C800B0FA80F04009B0BD00BF0A20FBF7D9
:10546000AFFC2068C00707D18225A5F1C800B0FABB
:1054700080F04009B0BD00BF0A20FBF7A1FC206806
:10548000C00707D18C25A5F1C800B0FA80F040090B
:10549000B0BD00BF0A20FBF793FC2068C00707D10E
:1054A0009625A5F1C800B0FA80F04009B0BD00BF54
:1054B0000A20FBF785FC2068C00707D1A025A5F1CD
:1054C000C800B0FA80F04009B0BD00BF0A20FBF769
:1054D00077FC2068C00707D1AA25A5F1C800B0FA5B
:1054E00080F04009B0BD00BF0A20FBF769FC2068CE
:1054F000C00707D1B425A5F1C800B0FA80F0400973
:10550000B0BD00BF0A20FBF75BFC2068C0077FF43A
:10551000EAAEBE25A5F1C800B0FA80F04009B0BDE2
:1055200083B00146002000908A6822F001028A6060
:1055300001900198013001900198B0F1706F51D83D
:10554000086900281ED40198013001900198B0F13B
:10555000706F47D80869002814D401980130019071
:105560000198B0F1706F3DD8086900280AD40198FD
:10557000013001900198B0F1706F33D80869B0F133
:10558000FF3FD6DC002001904FF484600861019851
:10559000013001900198B0F1706F23D8086980063E
:1055A0001DD50198013001900198B0F1706F19D8A4
:1055B0000869800613D50198013001900198B0F177
:1055C000706F0FD80869800609D5019801300190E5
:1055D0000198B0F1706F05D808698006D7D4002013
:1055E00001E000BF012000220292029A01320292E1
:1055F000029AB2F1706F4FD80A69002A1ED4029A3B
:1056000001320292029AB2F1706F45D80A69002AFB
:1056100014D4029A01320292029AB2F1706F3BD80E
:105620000A69002A0AD4029A01320292029AB2F15D
:10563000706F31D80A69B2F1FF3FD6DC00220292C6
:1056400010220A61029A01320292029AB2F1706F3C
:1056500022D80A69D20620D5029A01320292029A11
:10566000B2F1706F18D80A69D20616D5029A0132C3
:105670000292029AB2F1706F0ED80A69D2060CD566
:10568000029A01320292029AB2F1706F04D80A694A
:10569000D206D7D401E000BF0120D1F8003547F68B
:1056A000FF72C3F6FF72134003F18043C1F8003567
:1056B000D1F82035134003F18043C1F82035D1F8EB
:1056C0004035134003F18043C1F84035D1F86035CF
:1056D000134003F18043C1F86035D1F880351340A1
:1056E00003F18043C1F88035D1F8A035134003F1B0
:1056F0008043C1F8A035D1F8C035134003F1804391
:10570000C1F8C035D1F8E035134003F18043C1F84A
:10571000E035D1F80036134003F18043C1F800367C
:10572000D1F82036134003F18043C1F82036D1F878
:105730004036134003F18043C1F84036D1F860365B
:10574000134003F18043C1F86036D1F8803613402E
:1057500003F18043C1F88036D1F8A036134003F13D
:105760008043C1F8A036D1F8C036134003F180431E
:10577000C1F8C036D1F8E036134003F18043C1F8D8
:10578000E036D1F80035134003F14043C1F800354D
:10579000009B01330093009BB3F57A7F27D8D1F8A3
:1057A0000035B3F1FF3F22DC009B01330093009BE7
:1057B000B3F57A7F1BD8D1F80035B3F1FF3F16DC83
:1057C000009B01330093009BB3F57A7F0FD8D1F88B
:1057D0000035B3F1FF3F0ADC009B01330093009BCF
:1057E000B3F57A7F03D8D1F80035002BD0D4D1F8A7
:1057F0002035134003F14043C1F82035009B0133AD
:105800000093009BB3F57A7F27D8D1F82035B3F108
:10581000FF3F22DC009B01330093009BB3F57A7FAE
:105820001BD8D1F82035B3F1FF3F16DC009B0133C4
:105830000093009BB3F57A7F0FD8D1F82035B3F1F0
:10584000FF3F0ADC009B01330093009BB3F57A7F96
:1058500003D8D1F82035002BD0D4D1F840351340EF
:1058600003F14043C1F84035009B01330093009B96
:10587000B3F57A7F27D8D1F84035B3F1FF3F22DC6A
:10588000009B01330093009BB3F57A7F1BD8D1F8BE
:105890004035B3F1FF3F16DC009B01330093009BC2
:1058A000B3F57A7F0FD8D1F84035B3F1FF3F0ADC6A
:1058B000009B01330093009BB3F57A7F03D8D1F8A6
:1058C0004035002BD0D4D1F86035134003F140436C
:1058D000C1F86035009B01330093009BB3F57A7FDC
:1058E00027D8D1F86035B3F1FF3F22DC009B0133AC
:1058F0000093009BB3F57A7F1BD8D1F86035B3F1E4
:10590000FF3F16DC009B01330093009BB3F57A7FC9
:105910000FD8D1F86035B3F1FF3F0ADC009B0133AB
:105920000093009BB3F57A7F03D8D1F86035002B44
:10593000D0D4D1F88035134003F14043C1F880350D
:10594000009B01330093009BB3F57A7F27D8D1F8F1
:105950008035B3F1FF3F22DC009B01330093009BB5
:10596000B3F57A7F1BD8D1F88035B3F1FF3F16DC51
:10597000009B01330093009BB3F57A7F0FD8D1F8D9
:105980008035B3F1FF3F0ADC009B01330093009B9D
:10599000B3F57A7F03D8D1F88035002BD0D4D1F875
:1059A000A035134003F14043C1F8A035009B0133FB
:1059B0000093009BB3F57A7F27D8D1F8A035B3F1D7
:1059C000FF3F22DC009B01330093009BB3F57A7FFD
:1059D0001BD8D1F8A035B3F1FF3F16DC009B013393
:1059E0000093009BB3F57A7F0FD8D1F8A035B3F1BF
:1059F000FF3F0ADC009B01330093009BB3F57A7FE5
:105A000003D8D1F8A035002BD0D4D1F8C03513403D
:105A100003F14043C1F8C035009B01330093009B64
:105A2000B3F57A7F27D8D1F8C035B3F1FF3F22DC38
:105A3000009B01330093009BB3F57A7F1BD8D1F80C
:105A4000C035B3F1FF3F16DC009B01330093009B90
:105A5000B3F57A7F0FD8D1F8C035B3F1FF3F0ADC38
:105A6000009B01330093009BB3F57A7F03D8D1F8F4
:105A7000C035002BD0D4D1F8E035134003F14043BA
:105A8000C1F8E035009B01330093009BB3F57A7FAA
:105A900027D8D1F8E035B3F1FF3F22DC009B01337A
:105AA0000093009BB3F57A7F1BD8D1F8E035B3F1B2
:105AB000FF3F16DC009B01330093009BB3F57A7F18
:105AC0000FD8D1F8E035B3F1FF3F0ADC009B01337A
:105AD0000093009BB3F57A7F03D8D1F8E035002B13
